:100000000C948F050C94D6050C94D6050C94D6054B
:100010000C94D6050C94D6050C94D6050C94D605F4
:100020000C94D6050C94D6050C9498220C94D421EB
:100030000C94891C0C94D6050C94D6050C94D6050A
:100040000C94D6050C94D6050C94D6050C94D605C4
:100050000C94D6050C943C1C0C94D6050C94D60537
:100060000C94D6050C94D6050C94D6050C94D605A4
:100070000C94D6050C94D6050C94D6050C94D60594
:100080000C94D6050C94D6050C94D6050C94D60584
:100090000C94D6050C94D6050C94D6050C94D60574
:1000A0000C94D6050C94D6050C94D605A10AA10A89
:1000B000DB0ADB0A320BD90CD90CD90C4E0B2C0CF9
:1000C0003D0C3D0CEF1F1620AC211620AC215E200C
:1000D0008120AC2170218321192719272C272C2757
:1000E00022272C272C272C271927192727272C27AD
:1000F0002C2727270000000000000000000000005F
:1001000000000000000000000000000000000000EF
:1001100000000000000000007E0F00D4FFFFFFC7BA
:100120000000007800000000000000002A2B2800DA
:100130000000000000000000000000000000002996
:10014000000000002C1E3420212224342627252ED6
:10015000362D3738271E1F2021222324252633330E
:10016000362E37381F0405060708090A0B0C0D0E3A
:100170000F101112131415161718191A1B1C1D2F06
:100180003130232D350405060708090A0B0C0D0E26
:100190000F101112131415161718191A1B1C1D2FE6
:1001A0003130354C30300000DA0281FFD9F1DB20EC
:1001B000A4A62EAF00A0C000A1C800AED580A81F85
:1001C000D300408D14200000047F3F1F643214646C
:1001D0003214783C1E1E140A057363723A2E0073A3
:1001E00063723A2A004C69676874002D2D2D2D2DFD
:1001F000006361703A2E006361703A2A006E756D7B
:100200003A2E006E756D3A2A005374617473002D96
:100210002D2D2D2D0020554E440020524742002008
:100220004E41560020424153004C617965720000F6
:10023000AE01535400550056425F00600061005704
:10024000005C005D005E00000059005A005B00AEDB
:10025000006200635D6300580049002A000000014D
:10026000534A0052004B00000050004C004F000069
:10027000004D0051004E0000000000000000000092
:1002800000C45CCE5CC35C0100C75CC65C000000BF
:1002900000C95CC85C00000000CB5CCA5C000000C8
:1002A00000005C0000000000002223252628292AE7
:1002B0002C2D2F3032333536383A3B3D3E404243C9
:1002C0004547494A4C4E5051535557595A5C5E6008
:1002D00062646668696B6D6F71737577797B7D7F1A
:1002E00081838587898A8C8E90929496989A9C9E19
:1002F0009FA1A3A5A7A8AAACAEAFB1B3B4B6B8B935
:10030000BBBCBEBFC1C2C3C5C6C7C9CACBCCCDCE9C
:10031000D0D1D2D2D3D4D5D6D7D7D8D9D9DADADB7F
:10032000DBDBDCDCDCDCDCDDDDDDDDDCDCDCDCDC0B
:10033000DBDBDBDADAD9D9D8D7D7D6D5D4D3D2D24A
:10034000D1D0CECDCCCBCAC9C7C6C5C3C2C1BFBE32
:10035000BCBBB9B8B6B4B3B1AFAEACAAA8A7A5A39D
:10036000A19F9E9C9A98969492908E8C8A8987855C
:1003700083817F7D7B79777573716F6D6B6968663B
:100380006462605E5C5A5957555351504E4C4A490D
:1003900047454342403E3D3B3A3836353332302FB5
:1003A0002D2C2A29282625232200AF05010980A10A
:1003B00001850319012AB700150126B700950175BB
:1003C000108100C0050C0901A101850419012AA0B2
:1003D00002150126A002950175108100C0050109D2
:1003E00006A1018505050719E029E71500250195F6
:1003F00008750181020507190029EF1500250195EF
:10040000F07501810205081901290595057501910D
:1004100002950175039101C005010906A1010507B7
:1004200019E029E71500250195087501810295015C
:10043000750881010507190029FF150026FF0095A1
:1004400006750881000508190129059505750191B2
:1004500002950175039101C009023B00020100A051
:10046000FA09040000010301010009211101000142
:100470002240000705810308000A09040100010366
:10048000000000092111010001226D00070582030F
:1004900020000A1201000200000008434B505901DD
:1004A00000010200010E03590061006D007000613F
:1004B00000640000001E034D0061007400740069B8
:1004C0000061002000440061006C002000420065D3
:1004D000006E0000000403090407087F0807003EBF
:1004E0005B4F5B3E003E6B4F6B3E001C3E7C3E1CF8
:1004F00000183C7E3C18001C577D571C001C5E7F7A
:100500005E1C0000183C180000FFE7C3E7FF000076
:100510001824180000FFE7DBE7FF0030483A060E1A
:1005200000262979292600407F05050700407F0520
:10053000253F005A3CE73C5A007F3E1C1C0800083F
:100540001C1C3E7F0014227F2214005F5F005F5F4F
:100550000006097F017F00006689956A006060607F
:1005600060600094A2FFA2940008047E04080010BA
:10057000207E20100008082A1C0800081C2A0808F1
:10058000001E10101010000C1E0C1E0C0030383E07
:10059000383000060E3E0E0600000000000000008D
:1005A000005F000000000700070000147F147F14A4
:1005B00000242A7F2A120023130864620036495659
:1005C000205000000807030000001C22410000002A
:1005D00041221C00002A1C7F1C2A0008083E080833
:1005E0000000807030000008080808080000006063
:1005F0006000002010080402003E5149453E000002
:10060000427F4000007249494946002141494D332B
:10061000001814127F10002745454539003C4A490F
:100620004931004121110907003649494936004640
:100630004949291E00000014000000004034000059
:100640000000081422410014141414140000412264
:100650001408000201590906003E415D594E007C14
:100660001211127C007F49494936003E4141412226
:10067000007F4141413E007F49494941007F0909CE
:100680000901003E41415173007F0808087F0000C6
:10069000417F4100002040413F01007F081422417A
:1006A000007F40404040007F021C027F007F040822
:1006B000107F003E4141413E007F09090906003E8E
:1006C0004151215E007F09192946002649494932D6
:1006D0000003017F0103003F4040403F001F2040D6
:1006E000201F003F4038403F00631408146300039C
:1006F00004780403006159494D4300007F414141A2
:1007000000020408102000004141417F0004020162
:100710000204004040404040000003070800002061
:1007200054547840007F28444438003844444428D6
:1007300000384444287F0038545454180000087E80
:1007400009020018A4A49C78007F08040478000023
:10075000447D4000002040403D00007F10284400C0
:100760000000417F4000007C04780478007C08048D
:10077000047800384444443800FC18242418001835
:10078000242418FC007C0804040800485454542411
:100790000004043F4424003C4040207C001C2040D6
:1007A000201C003C4030403C004428102844004CB1
:1007B0009090907C004464544C4400000836410002
:1007C000000000770000000041360800000201022E
:1007D0000402003C2623263C0000000000000040EC
:1007E0004040F0F8F8FF38FFF8F83FF8F8FF38FF1E
:1007F000F8F8F040404000000000000080C0C0C099
:10080000800000C0C08000000080C0C000C0C000E8
:100810000080C0C00000000000C0C0C0C0C000C058
:10082000C000000000000000000000000000000008
:1008300000000000000000000000000000000000B8
:1008400000000000000000000000000000000000A8
:100850000000000000000000C0F0F8FC3E1E060191
:100860000000007F4141417F007F4141417F000006
:1008700080C0E07E5B4F5BFEC00000C000DCD7DEC6
:10088000DEDED7DC00C00000000000000000000039
:10089000000000000000000000000000000000490F
:1008A0004949FFFFFFFFE0DFBFBF00BFBFDFE0FF41
:1008B000FFFFFF49494900000000001F3F6060E062
:1008C000BF1F007F7F071E381E077F7F007F7F0EC0
:1008D0001F3B716000000000007F7F0C0C0C007E4D
:1008E0007E007F7E0303007F7E03037E7E03037F03
:1008F0007E000F3E703C063C703E0F00327B494943
:100900003F7E007F7E0303001E3F69696F26000063
:100910000000000000000000030F1F3F3C787060E3
:100920000000007F4141417F007F4141417F003015
:100930007B7F7830202030787F3B0003000F7F0FD3
:100940000F0F7F0F000300000000000000000000F8
:100950000000000000000000000000000000000196
:100960000101070F0F7F0F7F0F0F7E0F0F7F0F7F8C
:100970000F0F07010101000000000000000000004F
:100980000101000000000000000000000000000065
:100990000000000000000000000000000000000057
:1009A0000000000000000000000000000000000047
:1009B0000000000000000000000000000000000037
:1009C0000000000000000000000000000000000027
:1009D0000000000000000000000000000000000017
:1009E0000000000000000000000000000000000007
:1009F00000000000000000000000000000000000F7
:100A000000000000000000000000000000000000E6
:100A100000000000000000000000010101010101D0
:100A200001010102020202020202020203030303A5
:100A30000303030304040404040404050505050575
:100A40000606060606070707070708080808090933
:100A500009090A0A0A0B0B0B0C0C0C0D0D0D0E0EDE
:100A60000E0F0F0F10101111111212131314141571
:100A70001516161717181819191A1A1B1B1C1D1DE5
:100A80001E1E1F202021222223242425262627283B
:100A900029292A2B2C2D2D2E2F303132323334356B
:100AA000363738393A3B3C3D3E3F4041424344456E
:100AB000464748494A4C4D4E4F505153545556584D
:100AC000595A5B5D5E5F616264656668696B6C6DF7
:100AD0006F7072737577787A7B7D7E80828385876D
:100AE000888A8C8E8F91939596989A9C9EA0A2A3AB
:100AF000A5A7A9ABADAFB1B3B5B7BABCBEC0C2C4B0
:100B0000C6C9CBCDCFD1D4D6D8DBDDDFE2E4E7E96F
:100B1000EBEEF0F3F5F8FAFDFFFFAA7F5540112444
:100B20001FBECFEFDAE0DEBFCDBF04B603FE27C0A5
:100B30008091120590911305A0911405B0911505AF
:100B40008730904BA740B04BD1F410921205109211
:100B50001305109214051092150514BE84B7877FF3
:100B600084BF0FB6F894A895809160008861809347
:100B70006000109260000FBEE0E0F8E3099511E01C
:100B8000A0E0B1E0EAE9FCE502C005900D92AE3BC1
:100B9000B107D9F725E0AEEBB1E001C01D92A2315B
:100BA000B207E1F70E94510D0C944B2E0C940000FB
:100BB0001F93CF93DF93CDB7DEB767970FB6F89447
:100BC000DEBF0FBECDBF4B8B5C8B6D8B7E8B8F8B57
:100BD00061111092760286E09E01235F3F4FD9019A
:100BE000E82F1D92EA95E9F795E0FE017396D90189
:100BF00001900D929A95E1F79C894E895F897B89D6
:100C00007D879E876F87598B488BF901DE01179688
:100C100001900D928A95E1F7CE0107960E94E615A4
:100C200081113EC086E0FE013796DE0111960190EB
:100C30000D928A95E1F7FF81E8856A857B856115CC
:100C4000710531F0EF3F31F481E0FF3F19F403C04B
:100C500081E001C080E080FD23C02091420230E0AD
:100C6000C9010196877099274091730250E084175B
:100C7000950779F1F983EA837D836C8396E0929FEF
:100C8000D001939FB00D1124AD5BBD4FFE01319695
:100C900001900D929A95E1F7809342020E945215BD
:100CA00016E080917302909142028917F9F0189F23
:100CB000C00111248D5B9D4F0E94E6158823B1F081
:100CC0008091730290E00196877099278093730258
:100CD000E8CF0E9430271092420210927302ECE398
:100CE000F2E086E0DF011D928A95E9F767960FB67C
:100CF000F894DEBF0FBECDBFDF91CF911F91089555
:100D00004F925F926F927F928F929F92AF92BF921B
:100D1000CF92DF92EF92FF920F931F93CF93DF93C7
:100D2000CDB7DEB72A970FB6F894DEBF0FBECDBFA2
:100D3000FC01D080118183819481892B39F01F3F80
:100D400039F491E00FEFD01203C003C091E001C06D
:100D500090E090FD8FC67F0185E0DE011696019040
:100D60000D928A95E1F7F70122818E819F812223DE
:100D700049F00E94FA25082F682F8E819F810E94DA
:100D8000802603C00E945526082FE12FF0E015E0D1
:100D9000019FE00DF11D1124EE0FFF1FEE0FFF1F4D
:100DA000ED0DF11DEE0FFF1FEF5CFD4F059114914E
:100DB00003362DE5120709F0B2C0F70182818823BE
:100DC00009F4F4C064EAC62E61E0D62E7AE0472E1C
:100DD000F6012491222309F4E9C0213009F047C02B
:100DE00031968491813031F4F2E0CF0ED11CF601BE
:100DF00084918DC0823041F4F2E0CF0ED11CF60117
:100E000084910E948C2787C0833041F4F2E0CF0E9A
:100E1000D11CF60184910E945A277DC0843009F0CC
:100E200079C0F2E0CF0ED11CF601249180E090E071
:100E300030E0205331092A30310570F4489EA0017A
:100E4000499E500D1124C901840F951FFFEFCF1A41
:100E5000DF0AF6012491ECCF009709F45CC0EFE9BA
:100E6000FFE03197F1F700C000000197F5CFE22FC6
:100E7000F0E0EC5DFE4F5490822F86958695869526
:100E800090E0FC01EC5EFE4F64902770712C022E06
:100E900002C0759467940A94E2F7F1E06F22772418
:100EA000FC01EC5FFE4F8490912C022E02C09594C1
:100EB00087940A94E2F731E083229924FC01EC50F4
:100EC000FF4FA490B12C02C0B594A7942A95E2F7E5
:100ED00081E0A822BB246114710419F081EE0E9404
:100EE0008C278114910419F086EE0E948C27852DA1
:100EF0000E94FF27892819F086EE0E945A2767284A
:100F000019F081EE0E945A27AB2829F08CE20E944A
:100F1000FF2701C06F019FEFC91AD90A59CF043FBB
:100F2000ECE51E0759F190F4093D2CE51207E9F0B4
:100F30000A3D3CE51307A1F1083D8CE51807B1F522
:100F400006E221EE41EE68ED7CE514C0063F9CE52B
:100F5000190701F1C8F0073FFCE51F0739F507E263
:100F600025EE46EE67EF7CE505C007E225EE45EE8F
:100F700069ED7CE5C7010E94471D59C506E221EED7
:100F800040EE64EF7CE5F6CF07E225EE44EE65EF38
:100F90007CE5F0CF06E221EE42EE66EF7CE5EACF9B
:100FA00008E221E045EE6AED7CE5E4CFF7018281BD
:100FB000882309F445C11092AC020430FDE51F07F7
:100FC00058F40B3F2CE5120760F4C80182509C4591
:100FD000449708F01FC105C002363DE5130709F02C
:100FE00019C10E9453149093B9028093B802003142
:100FF0008CE5180709F4CAC008F041C00830ECE5D8
:101000001E0709F4A4C0F0F404302CE5120709F41B
:101010008CC068F402308CE5180709F482C00330F4
:101020001C4509F0E7C08091B8028260E1C006303B
:10103000ECE51E0709F483C008F085C08091B80272
:101040008860D6C00C302CE5120709F490C068F413
:101050000A308CE5180709F47EC008F084C00E94AD
:1010600030278091B8028068C3C00E30ECE51E07BF
:1010700009F481C008F086C08091B80294C00D3F89
:101080002CE5120709F47BC038F504318CE518070C
:1010900009F49AC058F40231ECE51E0709F47AC04D
:1010A00008F07EC08091B8028F7BA2C00B3F2CE578
:1010B0001207F1F108F03FC005311C4509F09AC054
:1010C0008091B80282FB222720F991E0922790FBC1
:1010D00082F990FB83F98CC001309DE5190709F472
:1010E00067C050F48091B9020F3FFCE51F07C1F1C2
:1010F00008F05BC08D7F65C003303DE5130709F440
:1011000071C008F46DC002361D4509F073C08091AE
:10111000B80284FB222720F991E0922790FB84F902
:1011200067C08091B802816063C08091B80216C028
:101130008091B90216C08091B902826042C080914C
:10114000B802806155C08091B802806251C0809120
:10115000B80280644DC08091B8028860846048C045
:10116000826081602EC08091B8028E7F41C08091E4
:10117000B8028D7F3DC08091B802877F39C08091D1
:10118000B90214C08091B8028F7E32C08091B8023B
:101190008F7D2EC00E9430278091B8028F7728C0A3
:1011A0008091B802877F8B7F23C08D7F8E7F09C09F
:1011B0008091B902982F909591708E7F892B90FB2A
:1011C00081F98093B90216C00E9430278091B8023D
:1011D00087FB222720F991E0922790FB87F908C02E
:1011E00061E001C060E08EE090E00E945D2902C0F5
:1011F0008093B8026091B8021091B90284E090E047
:101200000E945D29612F82E290E00E945D290E9488
:1012100030270DC48091770206312CE5120709F5BD
:101220008A7A91E009F490E09093C001882311F04C
:1012300065E301C069E28CE192E00E94DA1C0EC015
:1012400006311C4509F026C18091C001882309F4AC
:101250000FC465E38CE192E00E94B21C0E94D51499
:10126000E6C382720D3CECE51E0709F4C2C008F02B
:1012700045C0073C2CE5120709F4A7C0D8F4043C8C
:101280009CE5190709F497C030F4033CFCE51F07FF
:1012900009F46CC0CEC0053C2CE5120709F490C0DF
:1012A000063C3CE5130709F0C4C045E855E26EE88A
:1012B00075E2A3C00A3C9CE5190709F490C078F4D4
:1012C000083CFCE51F0709F485C0093C2CE5120722
:1012D00009F0AFC049E755E26DE675E28EC00B3C00
:1012E0003CE5130709F480C00C3C9CE5190709F0A4
:1012F000A0C049ED53E26AEE73E27FC0023DECE527
:101300001E0709F486C0A0F40F3C2CE5120709F46F
:101310007AC008F475C0003D8CE5180709F476C062
:10132000013D9CE5190709F084C06EE089E079C0B1
:10133000053DECE51E0709F472C068F4033D2CE599
:10134000120709F469C0043D3CE5130709F071C0B8
:1013500061E088E16BC0063D8CE5180709F464C0C4
:101360000E359DE5190709F462C363C080919F02A1
:1013700080FF1BC08E7F80939F0260919F027091BF
:10138000A0028091A1029091A2020E94C723109214
:10139000FE04EFEFF0E702E0E150F0400040E1F73B
:1013A00000C000000E946D2342C3816080939F02B1
:1013B00061E086953BC049ED55E262EE75E21DC0E5
:1013C00042EE55E269ED75E218C04EE855E265E877
:1013D00075E213C04DE655E269E775E20EC045E5DA
:1013E00055E261E675E209C041E655E265E575E260
:1013F00004C04AEE53E269ED73E20E94221E17C355
:1014000061E081E013C065E082E00BC068E086E047
:1014100008C064E18FE005C067E185E102C062E2D7
:1014200089E10E94101E03C361E083E20E949725B8
:10143000FEC20B352DE5120741F150F401158CE584
:101440001807A9F00F3D1C4529F50E946414EFC24E
:101450000C35EDE51E07D9F00D351D45D9F4809109
:10146000B90282FB882780F991E0892711C00E9488
:1014700030270FEF14E32CE0015010402040E1F73B
:1014800000C000000E942B1CD2C281E001C080E09D
:101490000E941B15F701828100811181882349F088
:1014A000C8010E94FA25D82E682FC8010E94802604
:1014B00004C0C8010E945526D82EE12FF0E015E0A7
:1014C000D19EE00DF11D1124EE0FFF1FEE0FFF1F47
:1014D000E00FF11DEE0FFF1FEF5CFD4F8591949122
:1014E0000E94CA128C01982EF701B280A580A294A6
:1014F0005FE0A52280917402877099F0BB2089F08B
:10150000812F807F803421F080E2800F883048F086
:1015100082E00E943515809174028770DD24D39497
:101520008111D12CC12EC2942FE0C2228C2D90E0CB
:101530008C30910508F03DC2FC01EA5AFF4F0C9433
:10154000E129812F807F1F70882311F01295107F71
:10155000BB20B9F0112309F417C280E2800F883054
:1015600010F0911006C080917702182B109377022B
:1015700005C080917602182B109376020E94D51434
:1015800003C2802F0E945A27112309F412C2005E61
:101590001095083010F0911006C080917702182342
:1015A0001093770205C0809176021823109376027B
:1015B0000E94D514FEC1812F807F1F70803211F0F0
:1015C0001295107F992021F0F1E09F1601F12EC0B5
:1015D000BB20A1F080917802AA2071F001E0A01256
:1015E0000BC0182B9091B90292FDE3C1181709F4B2
:1015F000E0C110937802DDC1812B10C0AA2021F038
:1016000021E0A21609F4D5C10E94CF1427C0BB2047
:1016100041F035E03A1508F4CCC1812F0E945027E3
:10162000C8C184E08A1508F4C4C118C0BB2049F0C1
:10163000AA2099F3F701858180FFA6C18F70858369
:10164000ECCFAA2059F0093309F0B0C1FFEF17EE33
:1016500023E0F15010402040E1F7A6C1812F0E9405
:101660004527A7C1812F86958695837019F0813013
:1016700059F09FC1BB2019F0C801937002C080E0EF
:1016800090E00E94251D9BC1BB2019F0C8019370FA
:1016900002C080E090E00E940F1D91C1812F8370F5
:1016A00009F069C0B11089C1902F929596959770F5
:1016B000990F990F802F8F70882E912CA12CB12C0F
:1016C000092E04C0880C991CAA1CBB1C0A94D2F7D2
:1016D00004FF12C04FE050E060E070E004C0440F2F
:1016E000551F661F771F9A95D2F7DB01CA018095B7
:1016F0009095A095B09503C080E090E0DC01169530
:101700001695412F4370423019F1C8F400917902C7
:1017100010917A0220917B0230917C02413059F085
:1017200088299929AA29BB29BC01CD0160237123ED
:10173000822393230AC0802A912AA22AB32ABC01B9
:10174000CD01682979298A299B290E94FA2635C169
:1017500088299929AA29BB290091790210917A0236
:1017600020917B0230917C02BC01CD016027712762
:1017700082279327EACFBB2019F0812F817001C007
:101780008695882309F419C1902F929596959770A4
:10179000990F990F802F8F70882E912CA12CB12C2E
:1017A000092E04C0880C991CAA1CBB1C0A94D2F7F1
:1017B00004FF12C04FE050E060E070E004C0440F4E
:1017C000551F661F771F9A95D2F7DB01CA018095D6
:1017D0009095A095B09503C080E090E0DC0116954F
:1017E0001695412F43704230D9F068F50091EF0112
:1017F0001091F0012091F1013091F201413059F046
:1018000088299929AA29BB29BC01CD01602371230C
:10181000822393231EC0802A912AA22AB32A13C0AE
:1018200088299929AA29BB290091EF011091F0017B
:101830002091F1013091F201BC01CD0160277127A7
:101840008227932706C0BC01CD01682979298A29FE
:101850009B290E94AA26B1C01F70BB2039F0812F9E
:101860000E94D926802F0E945027A7C0802F0E9457
:101870004527812F0E94B426A0C0802F32EF9316F7
:1018800009F440C0391538F090EF991661F0E1EF96
:101890009E1699F174C0F3EF9F16D9F124EF9216BA
:1018A00009F44EC06CC0BB2019F134E03A1508F4BD
:1018B00080C01F7181E090E0A0E0B0E0AC01BD010C
:1018C00004C0440F551F661F771F1A95D2F78091E9
:1018D000EF019091F001A091F101B091F2018A0124
:1018E0009B01082719272A273B27C901B80125C0D2
:1018F00025E02A1508F45DC0DCCFBB2029F0812F3C
:101900008F7130C0BB20D9F3812F8F710E94B42614
:1019100050C0BB2079F01F7181E090E0A0E0B0E002
:10192000BC01CD0104C0660F771F881F991F1A954F
:10193000D2F703C060E070E0CB010E94AA2639C054
:10194000BB2099F01F71812F0E94D9268091B90286
:1019500082FD07C038E0139FC0011124836080938B
:101960007402812F0E94D92624C081E00E9435157F
:1019700081E08A15F0F482E00E9435151AC0BB2080
:1019800039F0AA2009F4BBCF802F0E948C2711C008
:10199000AA2009F4B9CF893349F49FEFE7EEF3E0C9
:1019A0009150E040F040E1F700C00000802F0E941D
:1019B0005A2788EF8C0D843010F40E943B1DDD20E7
:1019C000A9F08091740280FD11C0F7011282859503
:1019D000859585950E94D926C7010E948006809131
:1019E00074028595859585950E94B42685E0F7015A
:1019F000DE01119601900D928A95E1F789819A8115
:101A00000E945526EA81F0E005E0809FE00DF11D7F
:101A10001124EE0FFF1FEE0FFF1F8981E80FF11D4C
:101A2000EE0FFF1FEF5CFD4F8591949123C08091D5
:101A300074028770F9F0F70182818823D9F082E07F
:101A40002A960FB6F894DEBF0FBECDBFDF91CF91BF
:101A50001F910F91FF90EF90DF90CF90BF90AF90CC
:101A60009F908F907F906F905F904F900C94351562
:101A700069E2F0CB2A960FB6F894DEBF0FBECDBF59
:101A8000DF91CF911F910F91FF90EF90DF90CF905A
:101A9000BF90AF909F908F907F906F905F904F908E
:101AA0000895CF93DF93CDB7DEB72C970FB6F89498
:101AB000DEBF0FBECDBF84B7877F84BF0FB6F8945B
:101AC000A89580916000886180936000109260000A
:101AD0000FBE90E080E80FB6F89480936100909379
:101AE00061000FBE85B7806885BF85B7806885BFF8
:101AF0008EE692E19093BF018093BE010E9418226E
:101B00000E9437228091E20084608093E200789402
:101B10008091E2028823A1F01091E9001F7090915A
:101B2000EC00892F817090FD80E8182B1092E9005D
:101B30008091E80083FD0E940B1F1F701093E90045
:101B400082E084BD93E095BD9AEF97BD80936E00CF
:101B500007E411E03CE4E32E31E0F32ED8018D914F
:101B60008D018F3F11F00E94B312E016F106B1F71C
:101B70000CE411E020E5E22E21E0F22EF801819143
:101B80008F018F3F11F00E94B312E016F106B1F7FA
:101B9000E3ECF1E088EC91E0A9ECB1E011921D9248
:101BA0008E179F07D9F784E190E00E94182AAC01B4
:101BB0009093C2018093C10120E030E0FA01E20F6E
:101BC000F31F90E011929F5F9430E1F72C5F3F4F3D
:101BD0002431310599F780E090E00E945729893E31
:101BE0009E4F11F00E94641482E090E00E94492907
:101BF000809316020E9453149093B9028093B80206
:101C00000E9487178FE79EE30197F1F700C000005D
:101C10000E9487178091C90180FF08C06FEF7FEF96
:101C200080E090E00E947B290E942B1C83E090E0E2
:101C30000E944929682F70E080E090E00E94FA2617
:101C400083E08093130280E28093EC020E941D28BF
:101C50006DE070E08AEB91E00E94B61E892B09F0DE
:101C600043C08091130263E070E081FD3AC087EBCE
:101C700091E00E94B61E892BB9F56DE070E087EA0D
:101C800091E00E94B61E892B79F50E94711CDC013F
:101C9000CB01805A9541AF4FBF4F8093A4029093E0
:101CA000A502A093A602B093A702EFEEF2E080E0B7
:101CB00092E0DF019C011D9221503040E1F7F0934A
:101CC000F604E093F5048FEF9FEF9093EE0280937C
:101CD000ED0281E08093A9028093A8021092140281
:101CE00003C084EB91E0C5CF8091C801811136C05B
:101CF00080E090E00E945729893E9E4F21F00E948B
:101D000064140E94FB2388E090E00E9451296093B4
:101D10009F027093A0028093A1029093A2026E7F13
:101D200071F40E94FB2388E090E00E9451296093A7
:101D30009F027093A0028093A1029093A2020E943E
:101D4000B4231092FE0480919F0280FF04C060E0E3
:101D500086950E94972581E08093C80186988E9A87
:101D600085988D9A8FB186FB882780F97D9902C06E
:101D700090E001C092E0892B8093D00186E091E051
:101D80009093B0028093AF0290E4692E8091E202BA
:101D9000853009F044C000E112E18091E202853013
:101DA00009F039C08091E202843019F11092B30237
:101DB00088E190E00FB6F894A895809360000FBE7C
:101DC0006092600083B7817F846083BF83B7816046
:101DD00083BF7894889583B78E7F83BF0FB6F894BE
:101DE000A8958091600088618093600010926000E7
:101DF0000FBE8091E102882309F4CFCF0E9487179C
:101E0000E9ECF1E08191811153C3AEECB1E0AE1782
:101E1000BF07C1F7C2CF0E9430270E943B1D0E941E
:101E20008717C82E81110E94711CE7E1F2E0A9EC2E
:101E3000B1E000E010E0302F2D919191922721F137
:101E400080E0FF24F394492F4F21D1F089833A8316
:101E50002F2181E009F480E08B830E947D1C81604A
:101E6000782F9D838C8349815A816B818D810E945B
:101E7000D805F801E95EFD4F8081F826F08219C08F
:101E80008F5FFF0C8430F9F60F5F1F4F053011058F
:101E900091F68FEF8E838F8318860E947D1C816060
:101EA000782F9A8789874E815F8168858A850E940D
:101EB000D8058091FE04882309F493C08091FD0425
:101EC000E0919F02E695E81BE093F904823059F413
:101ED000F0E0EB52FE4FE4910E2F10E082E3E82E8B
:101EE0008BE1F82E59C0863059F4F0E0EE52FE4FE7
:101EF000E4910E2F10E0B2E2EB2EBBE1FB2E4CC0C2
:101F0000893061F4E695F0E0E153FE4FE4910E2F45
:101F100010E0A8EBEA2EAAE1FA2E3EC08F3061F461
:101F2000E695F0E0E453FE4FE4910E2F10E0FBE461
:101F3000EF2EFAE1FF2E30C0853159F4F0E0E7537F
:101F4000FE4FE4910E2F10E0EDEFEE2EE9E1FE2EB4
:101F500023C08831A1F0833249F4E7ECF1E0059128
:101F6000149172EEE72E7AE1F72E16C0843271F4E6
:101F700004EF11E06AE3E62E69E1F62E0DC008E2F7
:101F800010E054E7E52E59E1F52E06C000ED17E00C
:101F900041ECE42E48E1F42E8091FA04882361F0AC
:101FA0001092FA040E947D1C9093F8048093F70429
:101FB0001092FC041092FB040E947D1CE091F70437
:101FC000F091F8048E1B9F0B8F3F9F4750F40E0F2C
:101FD0001F1F1093F8040093F70487EF94E0F701B4
:101FE00009958091D001E82FEE0FEE0FE093D0011C
:101FF0008FB186FB222420F8312C7D9903C080E02C
:1020000090E002C082E090E0822993298E2B809399
:10201000D0018F70E82FF0E0E05BFE4F908180915F
:10202000CF01890F8093CF0184305CF08091CE0185
:102030008F5F8093CE018AEA0E94FF27DD24D3942C
:1020400001C0D12C8091CF018D3F54F48091CE01FD
:1020500081508093CE0189EA0E94FF27DD24D3942A
:102060008091CF01082E000C990B64E070E00E9473
:10207000AB298093CF01D1100E94711C8091A902DD
:10208000882309F404C28FEE92E09093F6048093C3
:10209000F50489E292E00E94A81E4091EF01509160
:1020A000F0016091F1017091F201CB01AA27BB27E9
:1020B0000097A105B10521F0AC01BD0180E101C08F
:1020C00080E0052F162F272F332701151105210535
:1020D000310519F0885FB901A8018A019B0194E0DC
:1020E00036952795179507959A95D1F701151105FE
:1020F0002105310519F08C5FB901A8018A019B0106
:10210000B2E03695279517950795BA95D1F7011541
:1021100011052105310519F08E5FB901A8017695E9
:10212000679557954795452B462B472B09F08F5FB1
:10213000813049F028F0823049F48AE192E008C009
:1021400084E292E005C08FE192E002C085E192E076
:102150000E94A81E81E00E94E01D0E943B1D80FBA2
:10216000FF24F0F881FB002700F982FB112710F90A
:102170008FE092E00E94A81E89E092E00E94A81ED3
:10218000F11003C08DEF91E002C083E092E00E9465
:10219000A81E011103C081EF91E002C087EF91E01A
:1021A0000E94A81E111103C089ED91E002C08FEDBD
:1021B00091E00E94A81E8BEE91E00E94A81E85EE81
:1021C00091E00E94A81E8091A20221E1622F0E944C
:1021D0009129582F8091A1020E9491299091A002EB
:1021E00096959695969520919F02422F417020FFDB
:1021F00002C0269501C020E030E0411102C04EE24D
:1022000001C04AE21F925F931F928F931F929F9388
:102210003F932F931F924F9386E291E09F938F936A
:102220001F928DE18F9301ED11E01F930F930E9498
:10223000532BF80101900020E9F78F01015011099B
:102240000FB6F894DEBF0FBECDBFF1EDEF2EF1E07B
:10225000FF2EE016F10630F4D7018D917D010E942A
:10226000281EF7CF8091A902882309F4E5C02091A8
:10227000ED023091EE022115310509F4DDC08091A7
:1022800014028111D9C0482E512CEE24E394F12C74
:10229000082E02C0EE0CFF1C0A94E2F7A9014E21A1
:1022A0005F21452B11F48F5FEECF909113029201C5
:1022B00075E0220F331F7A95E1F790FD12C08295E9
:1022C000880F807680931201220F232F221F330B59
:1022D000319520931501815E8093130110921601B0
:1022E00012C055E0369527955A95E1F7220F220F37
:1022F000220F2093120110921501295F20931301E0
:1023000083E08093160124E630E047E050E060E18E
:1023100071E088E70E94D428892B09F08DC0809154
:10232000130280FD23C0C20145E0880F991F4A9522
:10233000E1F7AC0141515D4F04E610E020E230E0EE
:1023400060E488E70E94FB28892B09F075C00E9491
:10235000BA1DE094F0948091ED029091EE02E82293
:10236000F922F092EE02E092ED0266C080E2E3EF25
:10237000F1E0DF011D928A95E9F735E0440C551C28
:102380003A95E1F7E4E6F1E0FC87EB8760E671E07F
:10239000AB85BC858D91BC87AB87FB019191BF015B
:1023A000A201490F511D41515D4F90E08D509E4F4C
:1023B000FC0127E0A22E9F01281B390B882483945F
:1023C00001C0880C2A95EAF78A01912CD801BD90AA
:1023D0008D01B8202A2D29192770722E022E000C8B
:1023E000330BBB2D01C0BB0F7A94EAF77B2E3195DE
:1023F000219531092770332701C0B6942A95EAF751
:102400007B28B0807B287082939428E09212DECFE4
:10241000AA9431963FEFA312CECF88E691E0AB8528
:10242000BC858A179B0709F0B3CF04E610E020E2D1
:1024300030E043EF51E084CF8091A802882339F146
:102440000E94711C0091A4021091A5022091A60285
:102450003091A702DC01CB01801B910BA20BB30BC7
:102460008F3F9F4FAF4FBF4790F48091A9028823C1
:1024700071F08091A802882351F062E070E08FE251
:1024800092E00E94B61E892B11F41092A802C1108E
:1024900001C0D1100E94BA1D0E943B1D90911502EF
:1024A000891709F473CC0E943B1D809315026ECCF2
:1024B00009BD19BD09B400FEFDCF8091D8008F7D04
:1024C0008093D8008091E00082608093E00080914A
:1024D000E00081FDFCCF0E9430275FCC80E00895B2
:1024E0009091B80292FF0DC0282F2871283019F45E
:1024F000877F846006C0282F2471243011F48B7FDD
:10250000886093FF0DC0282F2871283119F4877E29
:10251000846106C0282F2471243111F48B7E8861D8
:102520002091B90220FF0DC0382F3871383019F4CE
:10253000877F816006C0382F3171313011F48E7F72
:10254000886021FF0DC0282F2871283119F4877E5B
:10255000816106C0282F2171213111F48E7E88619E
:1025600094FD877E0895F894E82FE295EF70F0E0EF
:1025700031A1282F2F7081E090E001C0880F2A95AB
:10258000EAF7982F9095932391A392A1892B82A388
:1025900078940895CF93DF938238910569F1B0F470
:1025A0008133910509F46FC048F48932910509F42B
:1025B00065C08A32910509F46BC08AC085339105E4
:1025C00009F457C089339105B9F082C0833E910563
:1025D00071F138F4803E9105B1F0823E910511F120
:1025E00077C0863E9105B9F1873E9105C9F1843ED9
:1025F000910509F06DC024C02091B80220FD53C0A0
:1026000021FD51C065C08091B80280FD46C0809117
:10261000B90280FF48C08091B80284FD3FC183EEBB
:1026200090E03EC18091B80282FF3AC0F4CF809121
:10263000B80282FD35C08091B90280FD34C0EBCF75
:102640008091B90281FF35C08091B80284FD26C116
:1026500087EE90E025C18091B80283FF27C0F4CFB8
:102660008091B80283FD22C08091B90281FD21C012
:10267000EBCF8091B80285FD1FC021C08091B802C8
:1026800085FD1DC019C08091B80286FD1BC01DC00C
:102690008091B80286FD19C015C089E390E000C1A1
:1026A00082EE90E0FDC080EE90E0FAC086EE90E011
:1026B000F7C084EE90E0F4C089E290E0F1C085E3D9
:1026C00090E0EEC08AE290E0EBC081E390E0E8C0E9
:1026D000811532E5930708F069C0811541E594073B
:1026E00028F0982F8827816F906ADAC0883E91057C
:1026F00068F5803E910508F0D3C0883A9105B8F49A
:10270000853A910548F0855AE82FF0E0E859FE4FE8
:10271000808190E09064C4C08130910509F4BBC011
:1027200008F4BCC08430910508F4B8C0B9C08F3B30
:10273000910508F0B3C0885AE82FF0E0EE0FFF1FB4
:10274000E559FE4F808191819464AAC0811520E5EE
:102750009207F0F09C0174E0369527957A95E1F7A1
:10276000922F9370482F437021E030E002C0220F77
:10277000331F4A95E2F73C68392B8F70982F969556
:10278000969540E2949FC0011124822B932B88C020
:10279000811530E4930718F09F70906A81C09C0106
:1027A0003A9521153F4108F47BC078C0EC01C11572
:1027B00086E5D807E8F5C11525E5D20748F08C2F46
:1027C0000E9470128F7190E0982F8827906268C0E5
:1027D000C11534E5D30728F09C2F8827846F906AB1
:1027E0005FC0AE01437055272C2F26952695C11545
:1027F000D34578F481E090E002C0880F991F4A9594
:10280000E2F740E2249F90011124822B932B9C68D5
:1028100047C081E090E002C0880F991F4A95E2F717
:1028200040E2249F90011124822B932B9A6838C098
:10283000C1152AE5D207F8F4C11539E5D30790F0A0
:102840008C2F8F700E94701294E0D695C7959A9540
:10285000E1F7CF70D0E0DC2FCC27D0699E01282B88
:10286000C9011EC0C11548E5D407C0F09C2F8827B8
:10287000806F906A15C0CE0190568115904270F419
:102880008D2F8F710E947012282F2F71CE019927E2
:102890009062922B05C081E090E002C080E090E061
:1028A000DF91CF910895CF9384E090E00E94492971
:1028B000C82F82E290E00E9449292C2F30E0A90124
:1028C000582BCA01CF91089569EE7EEF80E090E029
:1028D0000E947B2960E082E090E00E945D2960E038
:1028E00083E090E00E945D291092790210927A02B2
:1028F00010927B0210927C0260E084E090E00E94E3
:102900005D2960E082E290E00E945D2960E085E060
:1029100090E00E945D2960E086E090E00E945D29E1
:102920006FEF87E090E00E945D2940E050E0BA013F
:1029300088E090E00E946F2960E08DE090E00E94C6
:102940005D2940E050E0BA0188E190E00E946F29E3
:1029500060E087E190E00E945D2940E050E0BA012C
:102960008CE190E00E946F2960E070E080E290E0EE
:102970000E947B2940E050E0BA0188E190E00E948B
:102980006F2940E050E0BA018FE090E00E946F298B
:1029900040E050E0BA0183E190E00C946F2980910F
:1029A00078028111109278020895909177028091B7
:1029B0007602892B20917502982F922B90931C02FE
:1029C000809178028823D9F0892B80931C02809112
:1029D0001A01882331F08091B80287FF02C08EE18E
:1029E00001C086E0EEE1F2E090E0815028F0219114
:1029F0002223D9F39F5FF9CF91110E94CF14E09168
:102A0000AF02F091B0023097A9F080911A018823AB
:102A100059F08091B80287FF07C080911C02809313
:102A20001D0285E080931C020280F381E02D8CE181
:102A300092E009940895CF93C091B902C2FB9927FF
:102A400090F9981781F080FBC2F9C093B9026091A8
:102A5000B80284E090E00E945D296C2F82E290E051
:102A6000CF910C945D29CF910895209174028095A7
:102A7000822380937402982F977041F430E0482F9E
:102A8000082E000C550B2417350721F49091B9023C
:102A900092FF07C08595859585950E94B426109272
:102AA000740208958091730290914202891719F07F
:102AB0008F5F8770FBCF08950F931F93CF93DF93A2
:102AC0008091410282958F7009F05DC080913E0235
:102AD000882309F458C080917302109142026091DA
:102AE0003C0270913D02C0913F02D091400291E0C2
:102AF0006F3F09F090E0292F06E0811709F443C0E9
:102B0000209721F07F3F21F030E003C031E001C089
:102B1000322F90E030FD34C0089FF001099FF00D86
:102B20001124DF01AD5BBD4F11963C911197371316
:102B300027C03C91361324C012963C911297311154
:102B40001FC013964D915C9114974C1B5D0B483C34
:102B50005105B0F4809141028F70806180934102F1
:102B6000E85BFD4F80818F70806180838CE392E011
:102B70000E948006DF91CF911F910F910C94521506
:102B800001968770BACFDF91CF911F910F91089571
:102B9000CF93DF93D82FC92F0E94FA25EC2FF0E0B6
:102BA00095E0899FE00DF11D1124EE0FFF1FEE0F40
:102BB000FF1FED0FF11DEE0FFF1FEF5CFD4F859125
:102BC00094910E94CA12DF91CF9108959F92AF9283
:102BD000BF92CF92DF92EF92FF920F931F93CF930A
:102BE000DF93CDB7DEB761970FB6F894DEBF0FBEA7
:102BF000CDBF8C0185E0F801DE011D9601900D929C
:102C00008A95E1F7F801E28090913C0260913D02E3
:102C100040913F02509140024115510531F06F3F04
:102C200031F481E09F3F19F403C081E001C080E0EE
:102C3000F82FF1709F2E80FD1AC1F801308121819B
:102C4000C380D4808CE3A82E82E0B82EF0903E02A0
:102C5000F601E41BF50BFF2009F4C6C08091410288
:102C6000E83CF10508F091C0482F407F09F050C0C2
:102C7000621311C093130FC0FE2CE1100CC08F70B3
:102C8000806180934102C5010E94800680914102CB
:102C9000F801858329C1CD2831F02F3F31F481E03F
:102CA0003F3F19F403C081E001C080E080FD03C014
:102CB00081E08E2502C080E090E0F82FF170FF2EB9
:102CC00080FF1CC0809173024091420256E084173D
:102CD00009F4E8C090E0589FF001599FF00D1124CD
:102CE000ED5BFD4F6181261306C06081631303C055
:102CF0006281E61203C001968770E9CFFE2CEE20B8
:102D000009F4F2C08091410281608093410249C080
:102D1000621306C0931304C0E11002C0F80186C01C
:102D2000C8010E940427882351F1EE2041F120912F
:102D30004102822F82958F7090E0029774F080910B
:102D40003C0290913D0298878F831986DB86CA8664
:102D50002C87CE0107960E94800686E0F801ACE33E
:102D6000B2E001900D928A95E1F70E945C150AC0CD
:102D70006217C9F0C8010E94042781111EC0C80152
:102D80000E948006FF24F394AFC0482F407F81F754
:102D90008CE392E00E94800686E0F50111928A950C
:102DA000E9F7F12CA1C09313E5CFE110E3CFF801CF
:102DB0008583C8010E94800654C0EE2001F3209153
:102DC0004102822F82958F7090E0029734F28091B9
:102DD0003C0290913D029A8389831B82DD82CC82E2
:102DE0002E83CE010196B7CFE83CF105D0F5FE2C3D
:102DF000EE2029F2621327C0931325C020914102CF
:102E000020FD18C0822F82958F70482F50E0411509
:102E1000510581F0F80125834F30510541F08F5F56
:102E2000982F9295907F822F8F70892B8583C80170
:102E30000E94800686E0F801ACE3B2E001900D92BA
:102E40008A95E1F751C0C8010E940427811185CFFE
:102E500080914102816080934102C8010E948006F6
:102E600043C086E0F50111928A95E9F73DC0EE2056
:102E700009F485CFC8010E940427F82E882309F49D
:102E80007ECF86E0F801ACE3B2E001900D928A9526
:102E9000E1F780913C0290913D020E94C8150E948A
:102EA0005C1522C03D872E878D859E850E94C815A2
:102EB000292F22952F70223028F49F7039F081112C
:102EC00005C00BC0243028F49F7049F4805E883020
:102ED00020F0C8010E9480069F2CF92C05C0F80143
:102EE0009581907F99F7F9CF8F2D61960FB6F89461
:102EF000DEBF0FBECDBFDF91CF911F910F91FF902D
:102F0000EF90DF90CF90BF90AF909F9008957F9209
:102F10008F929F92AF92BF92CF92DF92EF92FF92E9
:102F20000F931F93CF93DF9300D000D01F92CDB7A4
:102F3000DEB7AE014F5F5F4F7A0185E0DA011D9287
:102F40008A95E9F707E411E06A014CE4842E41E038
:102F5000942EAA24A394B12CF80180818F3F09F408
:102F600048C0F894E82FE295EF70F0E021A18F704F
:102F7000A50102C0440F551F8A95E2F7CA01922F9E
:102F8000982B91A392A18095892382A3789400C065
:102F9000ECE4F1E020E030E0712C81918F3FB9F05A
:102FA000A82FA295AF70B0E090964C9150E08F7032
:102FB000DA0102C0B595A7958A95E2F7A0FD07C092
:102FC0008A2D022E01C0880F0A94EAF701C080E022
:102FD000782A2F5F3F4F24303105F9F6F8018081C0
:102FE0008F3F11F00E94B312F0EAFA95F1F7D60183
:102FF0007C920F5F1F4FBFEFCB1ADB0A8016910642
:1030000009F0AACF45E050E0B70183EC91E00E94BF
:10301000462B8C01DD24D394892B09F4D12C011586
:10302000110541F085E0F701A3ECB1E001900D92AC
:103030008A95E1F7F0908002FF2009F43FC00E94DA
:103040007D1C20917E0230917F02FC01E21BF30B7C
:103050009F0190937F0280937E02EF3FF10509F07C
:1030600020F4EF2B09F474C002C02FEF30E010926F
:10307000800210927D02E091C101F091C201BF0176
:103080006C5E7F4F90E030E0AF014C5F5F4F80811E
:10309000882341F0281718F010829F2D03C0821B4F
:1030A00080833F2D3196E417F50789F76E177F0768
:1030B00059F73093800290937D024AC0012B09F4A6
:1030C0003FC00E947D1C90937F0280937E0280917E
:1030D000C1019091C201C090800263EC71E0A9EC43
:1030E000B1E07C01F4E1EF0EF11CAA24A394B12C11
:1030F00032E0932EFB013191BF012C913227FC016C
:1031000040E050E08501042E01C0000F0A94EAF768
:10311000832E802239F08080811004C09082202785
:10312000CC24C39431964F5F5F4F4430510551F723
:1031300004962D93E816F906E9F6C09280020DC0B8
:1031400080E090917D02992341F08111C0CFB9CFE9
:10315000012B09F0BCCF81E0F4CF8D2D0F900F90A3
:103160000F900F900F90DF91CF911F910F91FF90D3
:10317000EF90DF90CF90BF90AF909F908F907F9017
:103180000895089508958091BF0208959091E202F4
:10319000943031F58093BA027093BC026093BB0205
:1031A00082E08093E9008FEF9091E800815095FDD7
:1031B00006C095ED9A95F1F700008111F5CF809149
:1031C000E80085FF0DC040E050E063E070E08AEB6E
:1031D00092E00E94DF1E8091E8008E778093E800E5
:1031E0000895BC0184E00C94C618BC0183E00C94E3
:1031F000C618CF93DF9320911A01222339F0209132
:10320000B80227FF03C060E222E002C068E021E0CC
:103210002093E9002FEF3091E800215035FD06C0E2
:1032200035ED3A95F1F700002111F5CF2091E80036
:1032300025FF1DC0EC0180911A01811105C040E0FD
:1032400050E068E070E003C070E040E050E0CE0184
:103250000E94DF1E8091E8008E778093E80080E274
:10326000FE01A0ECB2E001900D928A95E1F7DF91AA
:10327000CF910895EF92FF920F931F93CF93DF9317
:103280008C01C4E8D2E0E12CF12CF8018481F4E057
:10329000EF16F1041CF4882339F002C0811104C038
:1032A0009E014091A20202C09E0140E06091A102F5
:1032B0008091A0020E940A248FEFE81AF80A239650
:1032C00099E0E916F10409F70E946D23F801848161
:1032D00090E00196817099278483DF91CF911F91AF
:1032E0000F91FF90EF9008958F929F92AF92BF92AF
:1032F000CF92DF92EF92FF920F931F93CF93DF93C2
:10330000EC014C81042F10E09801D8010E94EF29B4
:103310009B01AC010E94052A6B017C01E0E2F0E018
:10332000E01BF10BA5E5B0E09B01AC010E94052A72
:103330004B015C019F01DF010E94E7299B01AC0169
:103340000E94102A9B01AC012C0D3D1D4E1D5F1DDE
:10335000C501B4010E94BF29822FF22E99E2921773
:1033600028F093E0299F900111240DC025E530E05D
:10337000281B3109C901880F991F280F391F37FFF2
:1033800002C02F5F3F4F35952795122F109594E877
:10339000C92E92E0D92E00E085E5E82EEF1801FD58
:1033A00002C08E2D01C08F2D9601412F6091A10288
:1033B0000E940A240F5F83E0C80ED11C093079F700
:1033C0000E946D238C81811102C091E003C0803284
:1033D00019F49FEF9093190190911901890F8C8333
:1033E000DF91CF911F910F91FF90EF90DF90CF90E1
:1033F000BF90AF909F908F9008950F931F93CF939E
:10340000DF93C4E8D2E0FE0111821082128233966B
:1034100082E0EF39F807C1F700E010E08091820206
:10342000082E000C990B0817190794F080911801C9
:10343000082E000C990B8017910754F09E014091C3
:10344000A2026091A1028091A0020E940A2403C0FE
:10345000198218821A820F5F1F4F239609301105B7
:10346000E9F60E946D238091170190918202980FD6
:103470009093820220911801280F209318011216B0
:1034800014F498301CF0819580931701DF91CF914F
:103490001F910F910895BF92CF92DF92EF92FF920A
:1034A0000F931F93CF93DF93FC01828180FF03C0B2
:1034B000DD24DA9402C0DD24D39404E812E0C0E0F5
:1034C000D0E029E0B22EF80111821082128294E03D
:1034D000E92EF12CC12C809181028C0D8A302CF0C8
:1034E0006B2D0E949D29892F02C087FD875F082EC2
:1034F000000C990BC817D90791F48091A2028E9DF8
:10350000A0018F9D500D11245595479555954795D0
:1035100098016091A1028091A0020E940A24CD0C22
:10352000F1E0EF1AF108B9F621960D5F1F4FC9308F
:10353000D10549F60E946D238091810291E0D91254
:1035400006C0811102C088E007C0815005C090E02C
:103550000196BE010E94AB2980938102DF91CF9139
:103560001F910F91FF90EF90DF90CF90BF90089543
:10357000EF92FF921F93CF93DF93EC0184E8E82E44
:1035800082E0F82E10E08C8197014091A2026091B8
:10359000A102810F0E940A24145E83E0E80EF11C50
:1035A0001C3F89F70E946D239A818C8190FF02C095
:1035B0008F5F01C081508C83DF91CF911F91FF906D
:1035C000EF9008950F931F93CF93DF9300D01F9236
:1035D000CDB7DEB78C018091830281110AC09E01B4
:1035E0002F5F3F4F4FEF6FEF0E940A248A81809335
:1035F0008302F8018481813051F028F0823061F437
:10360000409183020AC08091830240E007C060912C
:10361000830240E080E003C040E080E060E00E9480
:10362000A323F801848190E0019663E070E00E949A
:10363000AB2984830F900F900F90DF91CF911F9152
:103640000F910895CF93DF93EC01EFE9F2E043810E
:1036500062818C810E94A0248C818F5F8C83DF919A
:10366000CF910895CF93DF93EC01EC81F0E0E75523
:10367000FD4F4491EFE9F2E0628181810E94A02434
:103680008C818F5F8C83DF91CF9108952091E4002E
:103690003091E50095E64091EC00842F817040FF69
:1036A00023C08091E80080FD1DC08091E202882344
:1036B00099F0853099F08091EB0085FD11C0409123
:1036C000E4005091E5002417350729F3915011F0DB
:1036D0009A01E1CF84E0089582E0089583E008959F
:1036E00081E0089580E008954091E80042FFDDCF39
:1036F00008958091E40287FF11C08091E80082FD67
:1037000005C08091E2028111F8CF11C08091E800DC
:103710008B770BC08091E202882349F08091E8000A
:1037200080FFF8CF8091E8008E778093E8000895BD
:10373000982F973068F59093E900981739F07091B9
:10374000EC002091ED005091F00003C0242F762F63
:1037500050E021FD02C09F5FECCF3091EB003E7F37
:103760003093EB003091ED003D7F3093ED003091D0
:10377000EB0031603093EB007093EC002093ED0090
:103780005093F0002091EE0027FDE5CF80E00895F2
:103790008F708093E90081E008952091EA023091D2
:1037A000EB022617370748F06115710539F42091AF
:1037B000E8002E772093E80001C0B901FC0120E069
:1037C0006115710579F18091E2028823F1F185306C
:1037D000F1F18091E80083FD3CC08091E80082FD1A
:1037E0002EC08091E80080FFEBCF2091F300809104
:1037F000F20090E0922B6115710551F0883091052F
:1038000038F421912093F100615071090196F3CFB2
:1038100021E0089709F020E08091E8008E778093FE
:10382000E800CECF2111CFCF0AC08091E2028823D9
:1038300061F0853061F08091E80083FD0AC08091DD
:10384000E80082FFF2CF80E0089582E0089583E0EF
:10385000089581E0089587E797E7909301088093A2
:1038600000089AE088E10FB6F894A895809360006C
:103870000FBE90936000FFCF78941F920F920FB607
:103880000F9211248F939F93AF93BF938091B402B3
:103890009091B502A091B602B091B7020196A11D18
:1038A000B11D8093B4029093B502A093B602B09379
:1038B000B702BF91AF919F918F910F900FBE0F9064
:1038C0001F9018959C014FB7F8948091B402909185
:1038D000B502A091B602B091B7024FBF821B930B05
:1038E00008952FB7F8946091B4027091B502809159
:1038F000B6029091B7022FBF08952FB7F894809128
:10390000B4029091B502A091B602B091B7022FBF58
:1039100008951F920F920FB60F9211248F939F93C9
:10392000AF93BF938091B302811113C08091B40211
:103930009091B502A091B602B091B7024196A11D37
:10394000B11D8093B4029093B502A093B602B093D8
:10395000B702BF91AF919F918F910F900FBE0F90C3
:103960001F90189520911A012223C9F02091B802C6
:1039700027FF15C0262F2695269526952E31C8F4AB
:10398000FC01E20FF11D677081E090E001C0880F3B
:103990006A95EAF780959281892382830895FC01D4
:1039A00006962281621301C012823196E817F90748
:1039B000C1F7089520911A012223C1F02091B80285
:1039C00027FF14C0262F2695269526952E3130F5F3
:1039D000FC01E20FF11D677081E090E001C0880FEB
:1039E0006A95EAF79281892B82830895FC013296C9
:1039F0002FEF30E04191641789F02F3F19F4411106
:103A000001C0232F3F5F3630A9F72F3F39F0FC016B
:103A1000E20FF11D27FDFA95628308950895209124
:103A2000B1023091B2022817390771F09093B202B7
:103A30008093B102E091AF02F091B002309721F093
:103A40000084F185E02D099408952091AD02309114
:103A5000AE022817390771F09093AE028093AD0241
:103A6000E091AF02F091B002309721F00680F7812B
:103A7000E02D09940895E091AF02F091B0023097E3
:103A800021F00190F081E02D099480E008950F93DA
:103A90001F93CF93DF93C42FD22FFC018281882301
:103AA000C9F04093AC020E947D1C9093AB028093BE
:103AB000AA0280E28C0F883008F057C0C77081E0FE
:103AC00001C0880FCA95EAF7DF91CF911F910F913E
:103AD0000C9450278091AC02481330C08091AA0208
:103AE0009091AB020E94621C883C910538F510E26F
:103AF0001D0FCD17B9F080E28C0F883040F4C770ED
:103B000081E001C0880FCA95EAF70E944527183066
:103B100028F581E09D2F977001C0880F9A95EAF7EC
:103B20000E945027802F0E94FF271830F0F4D77092
:103B300081E001C0880FDA95EAF70AC080E28C0FB5
:103B4000883098F4C77081E001C0880FCA95EAF701
:103B5000DF91CF911F910F910C944527802FDF911A
:103B6000CF911F910F910C94FF27DF91CF911F915F
:103B70000F9108958091A9028823F9F00E94711C89
:103B8000DC01CB01805A9541AF4FBF4F8093A40217
:103B90009093A502A093A602B093A7028091A802D9
:103BA00081110BC062E070E089EA93E00E94B61ECA
:103BB000892B19F481E08093A8028091A8020895CE
:103BC000CF93E82F2091F5043091F6042F5E324018
:103BD0004091EC02642F70E0C9010E942C29481B1F
:103BE000842FEE2351F066E00E949129C82FC15026
:103BF000A8F080E20E94281EFACFA901480F511DAB
:103C00004115524018F080E020E030E0280F311DCF
:103C100021513D4F3093F6042093F504CF91089540
:103C200090919F0290FF04C09695981740F003C0B2
:103C3000811105C090E0961710F40C94E22561E024
:103C40000C949725882311F0FA0101C0FB01099417
:103C5000CF93DF938A3011F481E003C08D3029F4D3
:103C600080E0DF91CF910C94E01D682F8091F504E6
:103C70009091F60426E0FC01AFEEB4E001900D92C5
:103C80002A95E1F7603E30F026E0FC0111922A957A
:103C9000E9F70AC0F6E06F9FB001112467527B4F2D
:103CA00046E050E00E944029C091F504D091F6040E
:103CB00046E050E0BE018FEE94E00E94462B892B37
:103CC00049F19E012F5E3240A90185E05695479546
:103CD0008A95E1F781E090E0BC0102C0660F771F92
:103CE0004A95E2F74091ED025091EE02462B572B98
:103CF0002B5F3F4F65E0369527956A95E1F702C047
:103D0000880F991F2A95E2F7842B952B9093EE024A
:103D10008093ED029E01295E32404091EC02642FB7
:103D200070E0C9010E942C29481B463010F4240F72
:103D3000311D211582E0380710F020E030E02151DC
:103D40003D4F3093F6042093F504DF91CF91089511
:103D5000CF93DF93EC01FE018491882321F00E9430
:103D6000281E2196F8CFDF91CF910895EF92FF9210
:103D70000F931F93CF93DF93EC017B0164E670E018
:103D800088E70E9423288C01EC0EFD1ECE15DF056E
:103D900061F017FD0AC0FE01849164E670E00E94A4
:103DA000A4288C012196892B89F30E942829C80117
:103DB000DF91CF911F910F91FF90EF900895EF92B7
:103DC000FF920F931F93CF93DF937C018B010E948F
:103DD000461B811119C0E70101151105A1F0809161
:103DE000E80085FD0AC08091E8008E778093E800A6
:103DF0000E94461B882381F307C089918093F100BC
:103E000001501109E9CF80E0DF91CF911F910F910F
:103E1000FF90EF9008951F93CF93DF93CDB7DEB758
:103E2000AA970FB6F894DEBF0FBECDBFE4EEF2E066
:103E30008091F100819322E0EC3EF207C9F7809176
:103E4000E502833009F460C030F4813071F08230D3
:103E500009F49AC0B1C08A3009F486C08B3009F4E5
:103E60006BC0893009F0A8C020C08091E402813A7B
:103E700009F0A2C08091E800877F8093E8008091DC
:103E8000E8029091E902892B21F460E280EC92E053
:103E900003C060E080E090E070E00E94CD1B809164
:103EA000E8008B778093E80087C08091E40281323C
:103EB00009F082C08091E8029091E902029708F02F
:103EC0007BC08091E800877F8093E8008091E800C4
:103ED00082FD05C08091E2028111F8CF6DC0209172
:103EE000F3008091F20090E0922B029729F48091E8
:103EF000F1008B7F813021F48091F1008093BF022B
:103F00008091E8008B7754C08091E402813A09F0F7
:103F100053C08091E8029091E902892B09F04CC0CE
:103F20008091E800877F8093E8008091E80080FF1F
:103F3000FCCF80911A0137C08091E4028132E1F513
:103F40008091E8029091E902892BB1F58091E80017
:103F5000877F8093E8000E94791B8091E60280931E
:103F60001A010E94302728C08091E402813221F595
:103F70008091E800877F8093E8000E94791B809100
:103F8000E7028093BE0218C08091E402813AA1F456
:103F90008091E800877F8093E8008091E80080FFAF
:103FA000FCCF8091BE028093F1008091E8008E7773
:103FB0008093E8000E94791B8091E80083FFCCC1C8
:103FC0008091E4029091E502492F50E04A3051057A
:103FD00008F0C2C1FA01EE59FF4F0C94E129803874
:103FE00021F0823809F0B8C108C08091E0029091B8
:103FF000E102992389F082600FC08091E8028F70FE
:10400000873008F0A9C18093E9008091EB0085FB1F
:10401000882780F91092E9009091E800977F9093AB
:10402000E8008093F1001092F10065C1282F2D7FE8
:1040300009F092C1882319F0823061F08DC180911E
:10404000E602813009F088C1933009F080E0809366
:10405000E1022EC08091E60281112AC08091E8021F
:104060008F702FEF280F263008F076C18093E9007B
:104070002091EB0020FF1CC0933021F48091EB00D5
:10408000806214C09091EB0090619093EB0021E06E
:1040900030E0A90102C0440F551F8A95E2F7409312
:1040A000EA001092EA008091EB0088608093EB00B8
:1040B0001092E9008091E800877F20C181114CC1F6
:1040C0001091E6021F778091E3008078812B809326
:1040D000E3008091E800877F8093E8000E94791BCD
:1040E0008091E80080FFFCCF8091E300806880939E
:1040F000E300111102C082E001C083E08093E2027C
:104100002BC18058823008F027C18091E60290913F
:10411000E7028C3D53E0950779F583E08A838AE2D4
:1041200089834FB7F894DE01139620E03EE051E218
:10413000E32FF0E050935700E49120FF03C0E29595
:10414000EF703F5FEF708E2F90E0EA3010F0C7966F
:1041500001C0C0968D939D932F5F243149F74FBFC7
:104160008091E800877F8093E8006AE270E0CE01EA
:1041700001960E94CD1BAEC04091E8025091E90229
:10418000292F332723303105A9F068F42130310578
:1041900009F4F1C02230310509F0DEC08BE390E074
:1041A000E8E5F4E044C02132310521F12232310545
:1041B00071F1D2C0992781309105A1F058F0029792
:1041C00009F0CAC0E5EAF4E0E4918E2F90E0E5EA58
:1041D000F4E02AC0E5EDF4E0E4918E2F90E0E5ED07
:1041E000F4E022C0E5EBF4E0E4918E2F90E0E5EB03
:1041F000F4E01AC04115510509F4C2C0413051051F
:1042000009F0AAC089E090E0E3E8F4E010C04115AD
:10421000510509F4BAC04130510509F09DC08DE641
:1042200090E0EBEAF3E003C0009709F495C0209119
:10423000E800277F2093E8002091EA023091EB020A
:104240008217930708F49C0140E02115310589F19C
:104250008091E202882309F43DC08530D9F1809134
:10426000E80083FD37C08091E80082FD2FC0809177
:10427000E80080FFEACF4091F3008091F20090E0E7
:10428000942B2115310559F08830910540F4449163
:104290004093F1003196215031090196F2CF41E06F
:1042A000089709F040E08091E8008E778093E8005D
:1042B000CCCF4111CDCF0AC08091E202882351F0CA
:1042C000853041F08091E80083FD04C08091E800D2
:1042D00082FFF2CF8091E8008B778093E8003CC0AA
:1042E0008038D1F58091E800877F8093E800809145
:1042F000E3028093F1008091E8008E778093E800DC
:104300000E94791B29C0811127C08091E6029091FB
:10431000E7029927029704F58091E800877F809350
:10432000E8001091E6021093E3020E94791B11113C
:1043300006C08091E30087FD02C081E001C084E0F7
:104340008093E20242E061EC81E00E94981B42E22D
:1043500061EC82E00E94981B8091E80083FF1AC004
:104360008091E800877F8093E8008091EB00806275
:104370008093EB000FC082E190E0E3E9F4E057CFD7
:1043800089E090E0EAE6F4E052CF80E490E0E8E1F2
:10439000F4E04DCFAA960FB6F894DEBF0FBECDBFA6
:1043A000DF91CF911F9108951F920F920FB60F9238
:1043B00011242F933F934F935F936F937F938F932A
:1043C0009F93AF93BF93CF93DF93EF93FF93C091EE
:1043D000E900CF708091EC00D82FD17080FDD0E83B
:1043E0001092E9008091F000877F8093F00078942C
:1043F0000E940B1F1092E9008091F000886080936A
:10440000F000CD2BCF70C093E900FF91EF91DF91C9
:10441000CF91BF91AF919F918F917F916F915F915C
:104420004F913F912F910F900FBE0F901F901895B5
:10443000E8EDF0E080818E7F80831092E2001092A0
:10444000DA001092E100A0EEB0E08C9181608C93D4
:1044500080818F77808319BCA7EDB0E08C918E7F2F
:104460008C9380818F7E80831092BD020895CF92BD
:10447000DF92EF92FF920F931F93CF93DF93C8EDDC
:10448000D0E088818F7E8883E7EDF0E080818160D5
:10449000808384E082BF81E08093BD0288818E7F2B
:1044A000888302EE10E0F80110821092DA0081EEAB
:1044B000C82ED12CF601108288818F77888388815D
:1044C0008068888388818F7D888319BC1092E2027E
:1044D0001092E3021092E1021092E00290EEE92EB7
:1044E000F12CF70180818B7F8083888181608883B4
:1044F00042E060E080E00E94981BF60180818E7FA0
:104500008083F801808181608083808188608083DE
:10451000F70180818E7F8083888180618883DF912D
:10452000CF911F910F91FF90EF90DF90CF90089562
:104530001F920F920FB60F9211242F933F934F9318
:104540005F936F937F938F939F93AF93BF93EF93FB
:10455000FF938091E10082FF09C08091E20082FF19
:1045600005C08091E1008B7F8093E1008091DA00AB
:1045700080FF2AC08091D80080FF26C08091DA0099
:104580008E7F8093DA008091D90080FF18C080E18F
:1045900089BD82E189BD09B400FEFDCF81E0809331
:1045A000E2028091BD0281110FC00E9418220E9478
:1045B00037228091E20084608093E20005C019BC3C
:1045C0001092E2021092BD028091E10080FF17C0BC
:1045D0008091E20080FF13C08091E2008E7F809383
:1045E000E2008091E20080618093E2008091D80037
:1045F00080628093D80019BC85E08093E2028091AC
:10460000E10084FF2EC08091E20084FF2AC080E197
:1046100089BD82E189BD09B400FEFDCF8091D8003B
:104620008F7D8093D8008091E1008F7E8093E100A0
:104630008091E2008F7E8093E2008091E2008160B1
:104640008093E2008091E302882311F084E007C0A8
:104650008091E30087FD02C081E001C083E0809388
:10466000E2028091E10083FF27C08091E20083FF96
:1046700023C08091E100877F8093E10082E08093F6
:10468000E2021092E3028091E1008E7F8093E100CC
:104690008091E2008E7F8093E2008091E200806151
:1046A0008093E20042E060E080E00E94981B8091ED
:1046B000F00088608093F000FF91EF91BF91AF917F
:1046C0009F918F917F916F915F914F913F912F912A
:1046D0000F900FBE0F901F90189580919F0280FF42
:1046E0000AC0849A81B38F7E91B390612FB7F894FA
:1046F000E4E8F2E00BC0E4E8F2E0118210821282FA
:10470000339632E0EF39F307C1F7EBCF32E0EF3900
:10471000F30789F0319148E091BB000000C037FFFA
:1047200081BB330F000000C000C000C081BB00C0CF
:104730004A9591F7EBCF2FBF8FE594E00197F1F702
:1047400000C00000089590919F0290FF0CC0E4E823
:10475000F2E0818360834283339692E0EF39F90778
:10476000C1F70C946D23089580919F02282F269500
:1047700030E02115310519F48170826005C02532C1
:10478000310524F08170886480939F020895CF9250
:10479000DF92EF92FF926B017C010E94B423B7017C
:1047A000A60188E090E0FF90EF90DF90CF900C940E
:1047B0006F298091A302882319F081508093A3026E
:1047C00060919F027091A0028091A1029091A2023B
:1047D0000C94C7238091A302833018F48F5F8093D9
:1047E000A30260919F027091A0028091A10290911A
:1047F000A2020C94C723EFE9F2E083E080831182E8
:104800008FEF82838383148260817181828193819F
:104810000C94C723AF92BF92CF92DF92EF92FF9298
:104820000F931F93CF93DF93E82EF62EE901E42F29
:10483000F0E0611106C0E75EF54FE4914E2F2E2F98
:1048400071C0062F10E0E75EF54F4491F42FC42E9F
:10485000D12C26E0829FC00111242FEF30E0B90156
:104860000E942C295BEA5603C001579F900D11242A
:104870008E0D911D8E0D911D582F550F580FD9017A
:10488000A01BB10BAC9DC001AD9D900DBC9D900DCA
:104890001124E92FF59ED0011124AB2FBB277901FC
:1048A000EA1AFB0AEC9CD001ED9CB00DFC9CB00D0B
:1048B00011245901A51AB108A09E7001A19EF00C07
:1048C000B09EF00C1124EF2CFF242E193F092C9DD3
:1048D00080012D9D100D3C9D100D1124212F623063
:1048E000710591F048F461157105E1F061307105D1
:1048F000B9F4242F4B2F16C06430710569F040F0D5
:104900006630710579F00CC0242F492FE12F0AC0C1
:10491000492FEF2F2B2F06C0292FE42F412F02C044
:10492000292FEB2F49832883EA83DF91CF911F91B1
:104930000F91FF90EF90DF90CF90BF90AF900895D0
:10494000CF93DF9300D01F92CDB7DEB790919F0237
:1049500090FF0AC09E012F5F3F4F0E940A244B81A7
:1049600069818A810E94A3230F900F900F90DF919D
:10497000CF9108955F926F927F928F929F92AF92A4
:10498000BF92CF92DF92EF92FF920F931F93CF933C
:10499000DF9300D01F92CDB7DEB7182F762E042FED
:1049A000622E90919F0290FF6DC0E92FE695AE2F89
:1049B000B0E0A756BE4F8C918093FD049E7F92304D
:1049C00061F49E012F5F3F4F812F0E940A244B818B
:1049D00069818A810E94A32343C0823019F4009127
:1049E000A2023EC0863019F41091A00239C089306D
:1049F000D9F38931A9F5E9518E2F8170582EE695AA
:104A0000F0E0E75EF44FA590B49084E8C82E82E011
:104A1000D82EE12CF12CBB2499E0892E912CAE9C50
:104A2000C001AF9C900DBE9C900D1124B4010E945A
:104A30002C29812F511002C0860F01C0861B9601C0
:104A4000402F672D0E940A248FEFE81AF80A83E0AE
:104A5000C80ED11C89E0E816F10409F70E946D2305
:104A60001093A0027092A1020093A202662051F05E
:104A700060919F027091A0028091A1029091A20288
:104A80000E94C7230F900F900F90DF91CF911F913D
:104A90000F91FF90EF90DF90CF90BF90AF909F90DD
:104AA0008F907F906F905F900895EFE9F2E04381DF
:104AB00021E1421B08F440E021E0628181810C94F5
:104AC000BA24EFE9F2E0438121E1420F08F44FEF0D
:104AD00021E0628181810C94BA24EFE9F2E06281E5
:104AE00021E1621B08F460E021E0438181810C94A4
:104AF000BA24EFE9F2E0628121E1620F08F46FEF7E
:104B000021E0438181810C94BA24EFE9F2E08181B4
:104B100021E04381628188500C94BA24EFE9F2E0ED
:104B2000818121E043816281885F0C94BA24909155
:104B30009F0290FF3DC09170811102C0926006C03B
:104B4000853210F0986402C0880F982B90939F02D2
:104B5000662351F060919F027091A0028091A102A2
:104B60009091A2020E94C72360919F02669570E017
:104B70004BE050E08BE191E00E94392B892B19F03A
:104B80001092FE0409C081E08093FE040E947D1C07
:104B90009093F8048093F70481E08093FA0420E076
:104BA0004091A2026091A1028091A0020C94BA24CB
:104BB000089580919F028695815009F484E261E016
:104BC0000C94972580919F0286958F5F853208F01F
:104BD00081E061E00C94972580E090E00E94251D23
:104BE00080E090E00E940F1D1092760210927502F4
:104BF0000C94D5148F929F92AF92BF92DF92EF9256
:104C0000FF920F931F93CF93DF938090EF019090CB
:104C1000F001A090F101B090F20140917902509121
:104C20007A0260917B0270917C02842A952AA62ADE
:104C3000B72ACFE1D0E025E0D22EE92EF12C082FC3
:104C400010E0D501C4010C2E04C0B695A795979528
:104C500087950A94D2F780FD04C0219790F780E0F1
:104C600018C0DC9EF001DD9EF00D1124EE0DFF1D3D
:104C7000EE0FFF1FEE0FFF1FE00FF11FEE0FFF1FE4
:104C8000EF5CFD4F859194910E94CA12019729F320
:104C90008C2FDF91CF911F910F91FF90EF90DF90BC
:104CA000BF90AF909F908F900895990F990F890FA3
:104CB000682F669566956695982F977085E0689F32
:104CC000B001112440E050E080E0FB01E40FF51F4B
:104CD000E150FB4F208130E0092E02C03695279528
:104CE0000A94E2F721703327042E01C0220F0A94A0
:104CF000EAF7822B4F5F5F4F4530510531F708953A
:104D0000990F990F890FE82FE695E695E69587703C
:104D100051E001C0550F8A95EAF785E0E89FF00160
:104D20001124E150FB4F20E030E070E04081CB01E6
:104D3000022E02C0969587950A94E2F781708195BC
:104D400084278523842781932F5F3F4F25303105AA
:104D500069F708956093EF017093F0018093F1017A
:104D60009093F2010C94EC250F931F9341E050E0D7
:104D700060E070E004C0440F551F661F771F8A95DE
:104D8000D2F740955095609570958091EF01909184
:104D9000F001A091F101B091F2018A019B01082379
:104DA00019232A233B23C901B8011F910F910C94A9
:104DB000AA260F931F9341E050E060E070E004C02A
:104DC000440F551F661F771F8A95D2F78091EF0118
:104DD0009091F001A091F101B091F2018A019B0143
:104DE000082B192B2A2B3B2BC901B8011F910F91BE
:104DF0000C94AA266093790270937A0280937B02C6
:104E000090937C020C94EC25FC01808191810E949E
:104E1000C815292F2F70E92FE295EF704E2F50E023
:104E2000FA013297EE30F105B8F4E459FF4F0C94D3
:104E3000E129803F99F018F4883E70F40FC0843F58
:104E400059F40CC0883E50F0813F31F407C0822FE6
:104E5000869586958695089580E0089581E0089569
:104E60001092770280911A01882331F08091B80264
:104E700087FF02C08EE101C086E0EEE1F2E0DF01D3
:104E80001D928A95E9F70C94EC25882341F08095D2
:104E9000909177028923809377020C94D51408951A
:104EA000882339F090917702892B809377020C94B4
:104EB000D5140895882379F19CEF980F913A30F436
:104EC000682F8CE192E00E94B21C14C090E2980F0F
:104ED000983090F4877021E030E0A90102C0440FBF
:104EE000551F8A95E2F7CA01809590917702892330
:104EF000809377020C94D5149BE5980F933020F49F
:104F000080E090E00C94251D885A873120F480E0E1
:104F100090E00C940F1D0895CF93882309F46DC081
:104F20009CEF980F913AC8F5C82F80911A018823F9
:104F3000E1F08091B80287FF18C0EC2FE695E69566
:104F4000E695F0E0E45EFD4F8281282F30E04C2FA3
:104F5000477081E090E002C0880F991F4A95E2F700
:104F600082239323892B61F412C0EEE1F2E084E204
:104F700092E02191C21721F08E179F07D1F707C049
:104F80006C2F8CE192E00E94B21C0E94D5146C2F11
:104F90008CE192E00E94DA1C13C090E2980F9830E6
:104FA00090F4877021E030E0A90102C0440F551F42
:104FB0008A95E2F7CA0190917702892B8093770254
:104FC000CF910C94D514EBE5E80FE33040F4F0E01A
:104FD000E859FE4F808190E0CF910C94251D885AAE
:104FE000873158F4E82FF0E0EE0FFF1FE559FE4F30
:104FF00080819181CF910C940F1DCF9108951F93C3
:10500000CF93DF93182F893319F0C0E0D0E002C0AE
:10501000C0E5D0E0812F0E948C27209741F08FE9D6
:105020009FE00197F1F700C000002197F6CF812F94
:10503000DF91CF911F910C945A271092B9008CE008
:105040008093B80008959F92AF92BF92CF92DF9263
:10505000EF92FF920F931F93CF93DF93B82EEB0144
:105060000E947D1C6C01C431D10558F0CF3F8FEFF9
:10507000D80759F0CE0164E170E00E942C297B0131
:1050800007C0EE24E394F12C03C025E0E22EF12CBE
:1050900084E8A82E94EA992E1092BC009092BC004D
:1050A0000E947D1C8C018091BC0087FD08C00E947D
:1050B0007D1C801B910B8E159F05A8F32AC0809143
:1050C000B900887F883041F08091B900887F8031B5
:1050D00019F00FEF1FEF1FC0B092BB00A092BC00F1
:1050E0000E947D1C8C018091BC0087FD08C00E943D
:1050F0007D1C801B910B8E159F05A8F30AC0809123
:10510000B900887F883111F0803419F700E010E091
:105110000EC00EEF1FEFCF3F8FEFD80709F4BCCFC3
:10512000C6010E94621C8C179D0708F4B5CFC80108
:10513000DF91CF911F910F91FF90EF90DF90CF9073
:10514000BF90AF909F9008950F931F93CF93DF93DD
:10515000EB018093BB0084E88093BC000E947D1C1F
:105160008C018091BC0087FD0EC0CF3F8FEFD80728
:10517000C1F30E947D1C801B910B8C179D0788F347
:105180008EEF9FEF0CC02091B900287F81E090E066
:10519000283211F480E090E0919581959109DF919A
:1051A000CF911F910F910895CF92DF92EF92FF92CE
:1051B0000F931F93CF93DF936B018A017901B9019C
:1051C0000E942328E6010C0D1D1DC017D10761F4B4
:1051D00024E92093BC00DF91CF911F910F91FF90A4
:1051E000EF90DF90CF90089597FDF2CFB7018991AE
:1051F0000E94A428EACFCF92DF92EF92FF920F9302
:105200001F93CF93DF93C62F6A017901B8010E94E3
:10521000232897FD11C0B8018C2F0E94A428E60115
:10522000EC0CFD1CCE15DF0539F097FD05C0B8016B
:1052300089910E94A428F6CF24E92093BC00DF9135
:10524000CF911F910F91FF90EF90DF90CF90089535
:1052500084E98093BC000895AA1BBB1B51E107C0E1
:10526000AA1FBB1FA617B70710F0A61BB70B881FF6
:10527000991F5A95A9F780959095BC01CD01089585
:10528000FB01DC0102C005900D9241505040D8F75F
:105290000895F999FECF92BD81BDF89A992780B5FE
:1052A0000895A6E1B0E044E050E00C948329A8E121
:1052B000B0E042E050E00C948329262FF999FECF0C
:1052C00092BD81BDF89A019700B4021639F01FBA59
:1052D00020BD0FB6F894FA9AF99A0FBE0895039676
:1052E000272F0E945E290E945D29252F0E945E299A
:1052F000242F0C945E290196272F0E945E290C947E
:105300005D29DC01CB01FC01F999FECF06C0F2BD9D
:10531000E1BDF89A319600B40D9241505040B8F773
:105320000895991B79E004C0991F961708F0961B01
:10533000881F7A95C9F78095089587FB082E062661
:1053400087FD819567FD61950E9491290EF49195E5
:1053500007FC8195089597FB072E16F4009407D05B
:1053600077FD09D00E942C2907FC05D03EF49095CA
:1053700081959F4F0895709561957F4F0895A1E2A3
:105380001A2EAA1BBB1BFD010DC0AA1FBB1FEE1FBF
:10539000FF1FA217B307E407F50720F0A21BB30B0A
:1053A000E40BF50B661F771F881F991F1A9469F786
:1053B00060957095809590959B01AC01BD01CF01E2
:1053C0000895EE0FFF1F0590F491E02D09940E94BF
:1053D000EF29332312F48A1B9B0B0C94002AA29F03
:1053E000B001B39FC001A39F700D811D1124911DB9
:1053F000B29F700D811D1124911D08950E94EF2907
:10540000B7FF0895821B930B08950E94EF29A59F73
:10541000900DB49F900DA49F800D911D11240895AF
:10542000B7FF0C94052A0E94052A821B930B08954E
:105430000F931F93CF93DF938230910510F482E096
:1054400090E0E0911005F091110520E030E0A0E03F
:10545000B0E0309719F140815181028113814817E2
:105460005907C8F08417950769F4109731F0129620
:105470000C93129713961C9327C00093100510935A
:10548000110522C02115310519F04217530718F4F0
:105490009A01BD01EF01DF01F801DBCF21153105D4
:1054A000F9F0281B390B2430310580F48A819B8167
:1054B0006115710521F0FB019383828304C09093F1
:1054C000110580931005FE01329644C0FE01E20FE3
:1054D000F31F8193919322503109398328833AC075
:1054E00020910E0530910F05232B41F420910201EC
:1054F0003091030130930F0520930E052091000198
:10550000309101012115310541F42DB73EB740918D
:10551000040150910501241B350BE0910E05F0911B
:105520000F05E217F307A0F42E1B3F0B28173907CE
:1055300078F0AC014E5F5F4F2417350748F04E0FEF
:105540005F1F50930F0540930E058193919302C006
:10555000E0E0F0E0CF01DF91CF911F910F9108952E
:10556000CF93DF93009709F481C0FC013297138237
:105570001282A0911005B0911105109781F420813D
:105580003181820F931F20910E0530910F0528174E
:10559000390751F5F0930F05E0930E0567C0ED0153
:1055A00020E030E0CE17DF0740F44A815B819E01A6
:1055B00041155105F1F0EA01F5CFD383C283408153
:1055C0005181840F951FC817D90759F48881998193
:1055D000840F951F0296918380838A819B81938398
:1055E00082832115310529F4F0931105E09310050C
:1055F0003DC0E901FB83EA8349915991C40FD51F4E
:10560000EC17FD0761F480819181840F951F02964C
:10561000E90199838883828193819B838A83E0E077
:10562000F0E012968D919C911397009719F0FD016F
:10563000DC01F7CF8D919C9111979D012E5F3F4F1B
:10564000820F931F20910E0530910F0528173907FF
:1056500069F4309729F4109211051092100502C0D8
:1056600013821282B0930F05A0930E05DF91CF91A4
:105670000895FC014150504030F001900616D1F7DA
:105680003197CF010895882799270895FB01DC0100
:1056900004C08D910190801921F441505040C8F709
:1056A000881B990B0895AEE0B0E0E9E5FBE20C94AD
:1056B000222E0D891E898F89988D26E02C831A83CE
:1056C000098397FF02C080E090E801979E838D8355
:1056D000AE01455E5F4F698D7A8DCE0101960E94C5
:1056E000832B4D815E8157FD0AC02F81388542177B
:1056F00053070CF49A01F801E20FF31F10822E9663
:10570000E4E00C943E2EABE0B0E0E9E8FBE20C9460
:10571000142E6C017B018A01FC01178216828381A1
:1057200081FFCCC1CE0101963C01F6019381F701C6
:1057300093FD859193FF81917F01882309F4BAC17C
:10574000853239F493FD859193FF81917F018532F4
:1057500029F4B60190E00E947A2DE7CF912C212CFC
:10576000312CFFE1F315D8F08B3279F038F4803228
:1057700079F08332A1F4232D20611DC08D3261F0B8
:10578000803369F4232D216016C0832D8260382E6A
:10579000E32DE4603E2E2AC0F32DF8601DC037FCD7
:1057A0002DC020ED280F2A3040F08E32B9F436FC9F
:1057B00081C1232D2064322E19C036FE06C08AE036
:1057C000989E200D1124922E11C0EAE02E9E200DED
:1057D0001124222EF32DF0623F2E08C08C3621F4C6
:1057E000832D8068382E02C0883641F4F70193FD7E
:1057F000859193FF81917F018111B3CF982F9F7D78
:105800009554933028F40C5F1F4F9FE399830DC08C
:10581000833631F0833771F0833509F059C021C0E8
:10582000F801808189830E5F1F4F88248394912C17
:10583000530113C02801F2E04F0E511CF801A08063
:10584000B18036FE03C0692D70E002C06FEF7FEFBC
:10585000C5010E946F2D4C018201F32DFF773F2E71
:1058600016C0280122E0420E511CF801A080B18030
:1058700036FE03C0692D70E002C06FEF7FEFC501F7
:105880000E94642D4C01F32DF0683F2E820133FC01
:105890001BC0822D90E088169906B0F4B60180E214
:1058A00090E00E947A2D2A94F4CFF50137FC85917F
:1058B00037FE81915F01B60190E00E947A2D2110A0
:1058C0002A9421E0821A91088114910471F7E8C0AA
:1058D000843611F0893641F5F80137FE07C0608142
:1058E0007181828193810C5F1F4F08C0608171813B
:1058F000072E000C880B990B0E5F1F4FF32DFF76C0
:105900003F2E97FF09C090958095709561957F4FC8
:105910008F4F9F4FF0683F2E2AE030E0A3010E9496
:10592000B62D882E861845C0853731F4232D2F7E5D
:10593000B22E2AE030E025C0932D997FB92E8F3604
:10594000C1F018F4883579F0B5C0803719F0883780
:1059500021F0B0C0E92FE061BE2EB4FE0DC0FB2DDA
:10596000F460BF2E09C034FE0AC0292F2660B22E73
:1059700006C028E030E005C020E130E002C020E1B0
:1059800032E0F801B7FE07C06081718182819381A6
:105990000C5F1F4F06C06081718180E090E00E5F58
:1059A0001F4FA3010E94B62D882E8618FB2DFF776E
:1059B0003F2E36FE0DC0232D2E7FA22E891458F4C3
:1059C00034FE0BC032FC09C0832D8E7EA82E05C08C
:1059D000B82CA32C03C0B82C01C0B92CA4FE0FC056
:1059E000FE01E80DF11D8081803321F49A2D997E0E
:1059F000A92E09C0A2FE06C0B394B39404C08A2D98
:105A0000867809F0B394A3FC11C0A0FE06C0B214BE
:105A100088F4280C922C9B180EC0B21460F4B601C6
:105A200080E290E00E947A2DB394F7CFB21418F47C
:105A30002B1802C0982C212CA4FE10C0B60180E3C4
:105A400090E00E947A2DA2FE17C0A1FC03C088E757
:105A500090E002C088E590E0B6010CC08A2D8678FF
:105A600059F0A1FE02C08BE201C080E2A7FC8DE2EA
:105A7000B60190E00E947A2D891438F4B60180E3D3
:105A800090E00E947A2D9A94F7CF8A94F301E80D62
:105A9000F11D8081B60190E00E947A2D8110F5CF32
:105AA000222009F442CEB60180E290E00E947A2DD5
:105AB0002A94F6CFF6018681978102C08FEF9FEF7F
:105AC0002B96E2E10C94302EFC0105906150704061
:105AD0000110D8F7809590958E0F9F1F0895FC01B7
