:100000000C94C3050C940A060C940A060C940A0678
:100010000C940A060C940A060C940A060C940A0620
:100020000C940A060C940A060C94A01F0C94DC1E77
:100030000C94AE230C940A060C940A060C940A063F
:100040000C940A060C940A060C940A060C940A06F0
:100050000C940A060C9461230C940A060C940A066C
:100060000C940A060C940A060C940A060C940A06D0
:100070000C940A060C940A060C940A060C940A06C0
:100080000C940A060C940A060C940A060C940A06B0
:100090000C940A060C940A060C940A060C940A06A0
:1000A0000C940A060C940A060C940A06080B0B0B17
:1000B0002B0B380B3F0B5F0B620BA40BC00B5B0CC5
:1000C0005B0CCB0BCD0BD20BF60B170C1A0C1D0CCB
:1000D0003E0C421242127C127C12D512F013F01325
:1000E000F013F112651376137613F01C171DBE1E64
:1000F000171DBE1E631D861DBE1E7B1E8B1E662920
:100100006629792979296F2979297929792966290F
:100110006629742979297929742900DA0281FFD99D
:10012000F1DB20A4A62EAF00A0C000A1C800AED570
:1001300080A81FD300408D14200000047F3F1F645F
:100140003214643214783C1E1E140A057363723A2A
:100150002E007363723A2A004C69676874002D2D73
:100160002D2D2D006361703A2E006361703A2A00D4
:100170006E756D3A2E006E756D3A2A005374617477
:1001800073002D2D2D2D2D0020554E44002052475B
:100190004200204E41560020424153004C61796597
:1001A000720000AE0000000000000000000000002F
:1001B000000000000000000000000000000000003F
:1001C00000000000000000007E0F00D4FFFFFFC70A
:1001D0000000007800000000000000002A2B28002A
:1001E00000000000000000000000000000000029E6
:1001F000000000002C1E3420212224342627252E26
:10020000362D3738271E1F2021222324252633335D
:10021000362E37381F0405060708090A0B0C0D0E89
:100220000F101112131415161718191A1B1C1D2F55
:100230003130232D350405060708090A0B0C0D0E75
:100240000F101112131415161718191A1B1C1D2F35
:100250003130354C30300005010980A1018503198A
:10026000012AB700150126B700950175108100C05D
:10027000050C0901A101850419012AA00215012616
:10028000A002950175108100C005010906A1018534
:1002900005050719E029E715002501950875018175
:1002A000020507190029EF1500250195F075018158
:1002B0000205081901290595057501910295017539
:1002C000039101C00660FF0961A1010962150026C2
:1002D000FF009520750881020963150026FF00952F
:1002E0002075089102C005010906A101050719E062
:1002F00029E715002501950875018102950175080A
:1003000081010507190029FF150026FF00950675D4
:1003100008810005081901290595057501910295C7
:100320000175039101C009025B00030100A0FA09F5
:100330000400000103010100092111010001224014
:10034000000705810308000A0904010002030000F8
:10035000000921110100012222000705820320006B
:100360000107050303200001090402000103000046
:1003700000092111010001226D00070584032000FE
:100380000A1201000200000008434B50590100010D
:100390000200010E03590061006D007000610064ED
:1003A0000000001E034D00610074007400690061CC
:1003B000002000440061006C002000420065006ED7
:1003C0000000000403090407087F0807003E5B4F94
:1003D0005B3E003E6B4F6B3E001C3E7C3E1C00189B
:1003E0003C7E3C18001C577D571C001C5E7F5E1C29
:1003F0000000183C180000FFE7C3E7FF00001824C6
:10040000180000FFE7DBE7FF0030483A060E002641
:100410002979292600407F05050700407F05253FF3
:10042000005A3CE73C5A007F3E1C1C0800081C1C7C
:100430003E7F0014227F2214005F5F005F5F000692
:10044000097F017F00006689956A006060606060D6
:100450000094A2FFA2940008047E04080010207EED
:1004600020100008082A1C0800081C2A0808001E82
:1004700010101010000C1E0C1E0C0030383E3830CE
:1004800000060E3E0E060000000000000000005FA7
:10049000000000000700070000147F147F140024F0
:1004A0002A7F2A120023130864620036495620501E
:1004B00000000807030000001C2241000000412248
:1004C0001C00002A1C7F1C2A0008083E08080000A7
:1004D0008070300000080808080800000060600014
:1004E000002010080402003E5149453E0000427FB2
:1004F0004000007249494946002141494D330018E6
:1005000014127F10002745454539003C4A494931BE
:100510000041211109070036494949360046494939
:10052000291E0000001400000000403400000000FC
:100530000814224100141414141400004122140859
:10054000000201590906003E415D594E007C12111E
:10055000127C007F49494936003E41414122007FDB
:100560004141413E007F49494941007F0909090154
:10057000003E41415173007F0808087F0000417F21
:100580004100002040413F01007F08142241007FCC
:1005900040404040007F021C027F007F0408107F23
:1005A000003E4141413E007F09090906003E41519C
:1005B000215E007F09192946002649494932000376
:1005C000017F0103003F4040403F001F2040201FAB
:1005D000003F4038403F0063140814630003047870
:1005E0000403006159494D4300007F41414100022D
:1005F0000408102000004141417F00040201020470
:1006000000404040404000000307080000205454D0
:100610007840007F28444438003844444428003857
:100620004444287F0038545454180000087E0902BE
:100630000018A4A49C78007F080404780000447D7E
:100640004000002040403D00007F10284400000092
:10065000417F4000007C04780478007C0804047822
:1006600000384444443800FC18242418001824247A
:1006700018FC007C08040408004854545424000466
:10068000043F4424003C4040207C001C2040201CAF
:10069000003C4030403C004428102844004C9090DE
:1006A000907C004464544C44000008364100000033
:1006B0000077000000004136080000020102040239
:1006C000003C2623263C0000000000000040404083
:1006D000F0F8F8FF38FFF8F83FF8F8FF38FFF8F8BF
:1006E000F040404000000000000080C0C0C080001A
:1006F00000C0C08000000080C0C000C0C0000080FA
:10070000C0C00000000000C0C0C0C0C000C0C00029
:1007100000000000000000000000000000000000D9
:1007200000000000000000000000000000000000C9
:1007300000000000000000000000000000000000B9
:10074000000000000000C0F0F8FC3E1E06010000A2
:10075000007F4141417F007F4141417F000080C0D7
:10076000E07E5B4F5BFEC00000C000DCD7DEDEDE5B
:10077000D7DC00C000000000000000000000000006
:10078000000000000000000000000000004949498E
:10079000FFFFFFFFE0DFBFBF00BFBFDFE0FFFFFFE6
:1007A000FF49494900000000001F3F6060E0BF1F93
:1007B000007F7F071E381E077F7F007F7F0E1F3B55
:1007C000716000000000007F7F0C0C0C007E7E003A
:1007D0007F7E0303007F7E03037E7E03037F7E0014
:1007E0000F3E703C063C703E0F00327B49493F7E15
:1007F000007F7E0303001E3F69696F260000000032
:10080000000000000000030F1F3F3C7870600000F4
:10081000007F4141417F007F4141417F00307B7F2C
:100820007830202030787F3B0003000F7F0F0F0FC0
:100830007F0F000300000000000000000000000027
:1008400000000000000000000000000000010101A5
:10085000070F0F7F0F7F0F0F7E0F0F7F0F7F0F0F81
:10086000070101010000000000000000000001017C
:100870000000000000000000000000000000000078
:100880000000000000000000000000000000000068
:100890000000000000000000000000000000000058
:1008A0000000000000000000000000000000000048
:1008B0000000000000000000000000000000000038
:1008C0000000000000000000000000000000000028
:1008D0000000000000000000000000000000000018
:1008E0000000000000000000000000000000000008
:1008F00000000000000000000000000000000000F8
:10090000000000000000002223252628292A2C2D83
:100910002F3032333536383A3B3D3E40424345472F
:10092000494A4C4E5051535557595A5C5E60626467
:100930006668696B6D6F71737577797B7D7F818375
:100940008587898A8C8E90929496989A9C9E9FA176
:10095000A3A5A7A8AAACAEAFB1B3B4B6B8B9BBBC97
:10096000BEBFC1C2C3C5C6C7C9CACBCCCDCED0D10C
:10097000D2D2D3D4D5D6D7D7D8D9D9DADADBDBDB04
:10098000DCDCDCDCDCDDDDDDDDDCDCDCDCDCDBDBA5
:10099000DBDADAD9D9D8D7D7D6D5D4D3D2D2D1D0F9
:1009A000CECDCCCBCAC9C7C6C5C3C2C1BFBEBCBBF6
:1009B000B9B8B6B4B3B1AFAEACAAA8A7A5A3A19F6E
:1009C0009E9C9A98969492908E8C8A898785838132
:1009D0007F7D7B79777573716F6D6B696866646213
:1009E000605E5C5A5957555351504E4C4A494745E1
:1009F0004342403E3D3B3A3836353332302F2D2C82
:100A00002A29282625232201535400550056425FE7
:100A1000006000610057005C005D005E000000594E
:100A2000005A005B00AE006200625D63005800493E
:100A3000004A004B0001534C004D004E00000000E6
:100A40000000000000000000005200000000005004
:100A50000051004F000000C35CCD5CC25C0100C6C9
:100A60005CC55C00000000C85CC75C00000000CAF8
:100A70005CC95C00000000005C0000000000000099
:100A8000AF000101010101010101010202020202A4
:100A90000202020203030303030303030404040426
:100AA00004040405050505050606060606070707EE
:100AB000070708080808090909090A0A0A0B0B0BA5
:100AC0000C0C0C0D0D0D0E0E0E0F0F0F1010111142
:100AD00011121213131414151516161717181819C6
:100AE000191A1A1B1B1C1D1D1E1E1F20202122222D
:100AF000232424252626272829292A2B2C2D2D2E70
:100B00002F30313232333435363738393A3B3C3D89
:100B10003E3F404142434445464748494A4C4D4E7A
:100B20004F50515354555658595A5B5D5E5F616240
:100B300064656668696B6C6D6F7072737577787ACF
:100B40007B7D7E8082838587888A8C8E8F9193952A
:100B500096989A9C9EA0A2A3A5A7A9ABADAFB1B34E
:100B6000B5B7BABCBEC0C2C4C6C9CBCDCFD1D4D62E
:100B7000D8DBDDDFE2E4E7E9EBEEF0F3F5F8FAFDD0
:100B8000FFFFAA7F554011241FBECFEFDAE0DEBF82
:100B9000CDBF04B603FE27C08091160590911705BE
:100BA000A0911805B09119058730904BA740B04B24
:100BB000D1F4109216051092170510921805109294
:100BC000190514BE84B7877F84BF0FB6F894A89523
:100BD00080916000886180936000109260000FBE79
:100BE000E0E0F8E3099511E0A0E0B1E0E2E4F1E62D
:100BF00002C005900D92AE3CB107D9F725E0AEECEE
:100C0000B1E001C01D92A631B207E1F70E940C06C7
:100C10000C949F300C940000CF93DF93CDB7DEB7D8
:100C2000AE970FB6F894DEBF0FBECDBF84B7877FF7
:100C300084BF0FB6F894A895809160008861809376
:100C40006000109260000FBE90E080E80FB6F8944C
:100C500080936100909361000FBE85B7806885BF67
:100C600085B7806885BF8FE494E19093CF0180932E
:100C7000CE010E94201F0E943F1F8091E2008460ED
:100C80008093E20078948091AF028823A1F01091C4
:100C9000E9001F709091EC00892F817090FD80E831
:100CA000182B1092E9008091E80083FD0E940A1C35
:100CB0001F701093E90082E084BD93E095BD9AEF28
:100CC00097BD80936E000E94D925811102C00E94B9
:100CD000CA2507E411E07CE4E72E71E0F72ED80185
:100CE0008D918D018F3F11F00E949414E016F10652
:100CF000B1F70CE411E0F80181918F018F3F11F001
:100D00000E949414F1E000351F07A9F7E2EDF1E02D
:100D1000A2E2B2E011921D9221E0E73DF207D1F785
:100D200084E190E00E946C2CAC019093D1018093FF
:100D3000D00120E030E0FA01E20FF31F94E01192BD
:100D40009150E9F72C5F3F4F24313105A1F70E9404
:100D50004516811102C00E94501682E090E00E9468
:100D6000962B80931C020E9434169093FD0480936E
:100D7000FC040E9454198FE79EE30197F1F700C02D
:100D800000000E9454198091220280FF08C06FEF7A
:100D90007FEF80E090E00E94C82B0E94502383E008
:100DA00090E00E94962B0E944D2983E080931902C7
:100DB00080E28093BA020E946A2A6DE070E08DE2C0
:100DC00091E00E94E11B892B09F043C08091190238
:100DD00063E070E081FD3AC08AE291E00E94E11B8D
:100DE000892BB9F56DE070E08AE191E00E94E11B8A
:100DF000892B79F50E949623DC01CB01805A95411D
:100E0000AF4FBF4F8093E8049093E904A093EA04A6
:100E1000B093EB04EDEBF2E080E092E0DF019C01A7
:100E20001D9221503040E1F7F093C404E093C304D5
:100E30008FEF9FEF9093BC028093BB0281E0809381
:100E4000ED048093EC0410921A0203C087E291E053
:100E5000C5CF8091D701811133C00E944516811101
:100E600004C00E9450160E94A22688E090E00E94D2
:100E70009E2B6093C8047093C9048093CA04909316
:100E8000CB046E7F71F40E94A22688E090E00E945D
:100E90009E2B6093C8047093C9048093CA049093F6
:100EA000CB040E945B26109208058091C80480FF45
:100EB00004C060E086950E943E2881E08093D701BF
:100EC00086988E9A85988D9A8FB186FB882780F9AF
:100ED0007D9B02C092E001C090E0892B8093DA01F3
:100EE00086E091E09093F4048093F30460E4662E2E
:100EF000BE016F5F7F4F7B018091AF02853009F0AB
:100F000043C000E112E18091AF02853009F038C0A2
:100F10008091AF02843019F11092F70488E190E0DB
:100F20000FB6F894A895809360000FBE60926000A1
:100F300083B7817F846083BF83B7816083BF7894E8
:100F4000889583B78E7F83BF0FB6F894A89580915C
:100F50006000886180936000109260000FBE8091F5
:100F6000AE02882309F4CFCF0E945419E2E2F2E0E6
:100F700081918111C8C492E0E732F907C9F7C3CF64
:100F80000E947D290E9460240E945419A82E81117C
:100F90000E949623EDE1F2E0A2E2B2E000E010E070
:100FA000302F2D919191922721F180E0DD24D3946F
:100FB000492F4D21D1F089A33AA32D2181E009F4D5
:100FC00080E08BA30E94A2238160782F9DA38CA335
:100FD00049A15AA16BA18DA10E94080DF801E35E01
:100FE000FD4F8081D826D08219C08F5FDD0C843000
:100FF000F9F60F5F1F4F0530110591F68FEF8EA3A5
:101000008FA318A60E94A2238160782F9AA789A790
:101010004EA15FA168A58AA50E94080D80910805D0
:10102000882309F493C080910705E091C804E695F0
:10103000E81BE0930305823059F4F0E0E85BFE4FD3
:10104000E4910E2F10E052E1C52E53E2D52E59C087
:10105000863059F4F0E0EB5BFE4FE4910E2F10E088
:1010600042E0C42E43E2D42E4CC0893061F4E695B0
:10107000F0E0EE5BFE4FE4910E2F10E038E9C32E56
:1010800032E2D32E3EC08F3061F4E695F0E0E15CB1
:10109000FE4FE4910E2F10E02BE2C22E22E2D22E60
:1010A00030C0853159F4F0E0E45CFE4FE4910E2F3E
:1010B00010E09DEDC92E91E2D92E23C08831A1F018
:1010C000833249F4EAE3F1E00591149182ECC82EF1
:1010D00082E2D82E16C0843271F000ED17E0B4ED34
:1010E000CB2EB0E2DB2E0DC008E210E0A4E5CA2E44
:1010F000A1E2DA2E06C004EF11E0FAE1CF2EF1E210
:10110000DF2E80910405882361F0109204050E946F
:10111000A223909302058093010510920605109278
:1011200005050E94A223E0910105F09102058E1BA6
:101130009F0B8F3F9F4750F40E0F1F1F1093020508
:101140000093010581E095E0F60109958091DA01AF
:10115000E82FEE0FEE0FE093DA018FB186FB442407
:1011600040F8512C7D9B03C082E090E002C080E0FB
:1011700090E0842995298E2B8093DA018F70E82FD7
:10118000F0E0E05BFE4F90818091D901890F809360
:10119000D90184305CF08091D8018F5F8093D801B1
:1011A0008AEA0E944C2ABB24B39401C0B12C8091DE
:1011B000D9018D3F54F48091D80181508093D8019A
:1011C00089EA0E944C2ABB24B3948091D901082E4D
:1011D000000C990B64E070E00E94F82B8093D90119
:1011E000B1100E9496238091ED04882309F4B8C1C0
:1011F0008DEB92E09093C4048093C3048CE991E05A
:101200000E94C81B8091B9020E943B14813049F0B2
:1012100028F0823049F48DE891E008C087E991E038
:1012200005C082E991E002C088E891E00E94C81BF5
:1012300081E00E9405250E94602480FBDD24D0F817
:1012400081FB002700F982FB112710F982E891E069
:101250000E94C81B8CE791E00E94C81BDD2019F09A
:1012600086E791E002C080E791E00E94C81B00235E
:1012700019F08AE691E002C084E691E00E94C81B62
:10128000112319F082E591E002C08CE491E00E9404
:10129000C81B8EE591E00E94C81B88E591E00E9482
:1012A000C81B8091CB0421E1622F0E94DE2B082F06
:1012B0008091CA040E94DE2BD82E1091C904169585
:1012C000169516950E9453269091C80490FF02C06F
:1012D0009AE201C09EE21F920F931F92DF921F922B
:1012E0001F931F928F931F929F9386E291E09F938B
:1012F0008F931F928DE18F930BED11E01F930F934E
:101300000E94A72DF80101900020E9F78F010150FC
:1013100011090FB6F894DEBF0FBECDBFEBEDCE2E98
:10132000E1E0DE2EC016D10630F4D6018D916D01BC
:101330000E94481BF7CF8091ED04882309F4E5C093
:101340002091BB023091BC022115310509F4DDC0AA
:1013500080911A028111D9C0282E312CCC24C3943B
:10136000D12C082E02C0CC0CDD1C0A94E2F7A90196
:101370004C215D21452B11F48F5FEECF9091190226
:10138000910165E0220F331F6A95E1F790FD12C0CD
:101390008295880F807680931201220F232F221FBF
:1013A000330B319520931501815E809313011092C8
:1013B000160112C045E0369527954A95E1F7220FB0
:1013C000220F220F2093120110921501295F209302
:1013D000130183E08093160124E630E047E050E0FB
:1013E00060E171E088E70E94212B892B09F08DC014
:1013F0008091190280FD23C0C10125E0880F991F4B
:101400002A95E1F7AC0143545D4F04E610E020E279
:1014100030E060E488E70E94482B892B09F075C012
:101420000E94DF24C094D0948091BB029091BC02B2
:10143000C822D922D092BC02C092BB0266C080E210
:10144000E9EFF1E0DF011D928A95E9F795E0220CC2
:10145000331C9A95E1F7E4E6F1E0FEA7EDA740E63C
:1014600051E0ADA5BEA58D91BEA7ADA7FA019191A2
:10147000AF019101290F311DB90163547D4F7CA744
:101480006BA790E087509E4FFC0107E09F01281B4F
:10149000390B8824839401C0880C2A95EAF76BA540
:1014A0007CA5912CDB011D91BD011821202F29194C
:1014B0002770722E022E000C330BB12F01C0BB0F10
:1014C0007A94EAF77B2E31952195310927703327DD
:1014D00001C016952A95EAF7712A1081712A708247
:1014E000939428E09212DECF015031960F3F71F6AF
:1014F0006DA57EA56856714009F0B3CF04E610E0F3
:1015000020E230E049EF51E084CF8091EC04882361
:1015100039F10E9496230091E8041091E90420918A
:10152000EA043091EB04DC01CB01801B910BA20B90
:10153000B30B8F3F9F4FAF4FBF4790F48091ED04A7
:10154000882371F08091EC04882351F062E070E010
:1015500082EA91E00E94E11B892B11F41092EC04C5
:10156000A11001C0B1100E94DF240E94602490915C
:101570001B02891721F00E94602480931B02809136
:10158000AF02843009F0B8CC83E08093E900809109
:10159000E80082FFB1CC8091E80085FF23C00E9463
:1015A000752081111DC080E2C82ED12C8E010F5FE5
:1015B0001F4F09C08091F100D8018D938D01B1E0DA
:1015C000CB1AD10869F08091E80085FDF3CF8091B6
:1015D000E8008B778093E8000E947520882399F3B8
:1015E00091E001C090E08091E8008B778093E80063
:1015F000992309F481CCE9818E2F90E0FC01319789
:10160000E331F10508F057C1EA5AFF4F0C942E2C34
:101610001A8289E0C5C08A81823009F48AC1833088
:1016200051F0813009F047C10E9496239B838C833F
:101630007D836E8342C1809122028B83809123023D
:101640008C83809124028D83809125028E838091EA
:1016500026028F8332C18A81823009F02CC16B81CE
:101660007C818D819E810E94342C86E290E024C092
:101670004C816B818A810E9479259D8361C10D8196
:101680001E811027012710278C81CB809A81E8E0EA
:10169000CE9E60011124F8E29F9FC00CD11C112442
:1016A000C80ED11CC80ED11C612FC60187960E949E
:1016B000AA2B602FC60188960E94AA2BFEC00E940A
:1016C0004525FBC08A818138B1F050F4803809F09B
:1016D000F4C020E04B816091CA048091C90431C0FC
:1016E000823859F1833809F0E8C020E04091CB04FA
:1016F0006C818B8126C060E08B810E943E289B819B
:101700008091C804911111C08E7F8093C8041092FB
:1017100008052FEF30E762E0215030406040E1F7EC
:1017200000C000000E940C26C8C081608093C804DD
:1017300060E086950E943E28C0C08B818093CC04D7
:10174000BCC00E946127B9C08A81813899F030F409
:10175000803809F0B2C08091CB0422C0823869F091
:10176000833809F0AAC08091C9048B838091CA0490
:101770008C83A3C00E94532613C08091CC0410C058
:101780006091C8047091C9048091CA049091CB04FF
:101790000E946E2692C080E14EC083E08A8389E376
:1017A0008B838BC00A811B81102701271027AC80F7
:1017B000B12C6701C80189539F4F96012E193F092B
:1017C0002A153B0508F079C0093373E0170730F498
:1017D0000E94962BD60114968C9302C0F6011482B7
:1017E0000F5F1F4FFFEFCF1ADF0AE4CF0A811B8183
:1017F000102701271027AC80B12C6701C80189533D
:101800009F4F96012E193F092A153B0508F055C038
:10181000093323E0120728F4D60114966C910E9434
:10182000AA2B0F5F1F4FBFEFCB1ADB0AE7CF0E9437
:10183000352543C084E08A8340C00A811B8110277C
:1018400001271027AC80B12C6701C801879696014B
:101850002E193F092A153B0580F5003A110528F499
:101860000E94962BF601848303C0D60114961C9225
:101870000F5F1F4FBFEFCB1ADB0AE7CF0A811B8137
:10188000102701271027AC80B12C6701C80187966B
:1018900096012E193F092A153B0578F4003A1105E7
:1018A00020F4F60164810E94AA2B0F5F1F4FFFEF07
:1018B000CF1ADF0AEBCF8FEF89838091AF0284309C
:1018C00009F01ACB1091E9001F709091EC00892F5C
:1018D000817090FD80E8182B82E08093E900809170
:1018E000E80080FF0CC040E050E060E270E0C7011B
:1018F0000E94A8208091E8008E778093E8001F70F6
:101900001093E900F9CA09BD19BD09B400FEFDCF65
:101910008091D8008F7D8093D8008091E000826014
:101920008093E0008091E00081FDFCCF0E947D2942
:10193000EACA86E290E00E94962B1B821C821D82DE
:101940008E83BBCFDF92EF92FF920F931F93CF93C3
:10195000DF93E82FF0E0EC52FE4FD490282F26952D
:101960002695269530E0F901EC53FE4F04918770DF
:1019700010E0082E02C0159507950A94E2F7017051
:101980001127F901EC54FE4FE490F12C082E02C00F
:10199000F594E7940A94E2F791E0E922FF24F90133
:1019A000EC55FE4FC491D0E002C0D595C7958A95FD
:1019B000E2F7C170DD270115110519F081EE0E94D3
:1019C000D929E114F10419F086EE0E94D9298D2D50
:1019D0000E944C2AEF2819F086EE0E94A729012BBD
:1019E00019F081EE0E94A729CD2B51F08CE2DF91F6
:1019F000CF911F910F91FF90EF90DF900C944C2AA4
:101A0000DF91CF911F910F91FF90EF90DF9008959C
:101A10001F93CF93DF93CDB7DEB767970FB6F894D8
:101A2000DEBF0FBECDBF4B8B5C8B6D8B7E8B8F8BE8
:101A300061111092820286E09E01235F3F4FD9011F
:101A4000E82F1D92EA95E9F795E0FE017396D9011A
:101A500001900D929A95E1F79C894E895F897B8967
:101A60007D879E876F87598B488BF901DE0117961A
:101A700001900D928A95E1F7CE0107960E94B31767
:101A800081113EC086E0FE013796DE01119601907D
:101A90000D928A95E1F7FF81E8856A857B8561155E
:101AA000710531F0EF3F31F481E0FF3F19F403C0DD
:101AB00081E001C080E080FD23C020914E0230E033
:101AC000C90101968770992740917F0250E08417E1
:101AD000950779F1F983EA837D836C8396E0929F81
:101AE000D001939FB00D1124A15BBD4FFE01319633
:101AF00001900D929A95E1F780934E020E943D1756
:101B000016E080917F0290914E028917F9F0189F9C
:101B1000C0011124815B9D4F0E94B3178823B1F04F
:101B200080917F0290E001968770992780937F02D1
:101B3000E8CF0E947D2910924E0210927F02E8E4C5
:101B4000F2E086E0DF011D928A95E9F767960FB60D
:101B5000F894DEBF0FBECDBFDF91CF911F910895E6
:101B60008F929F92AF92BF92CF92DF92EF92FF92AD
:101B70000F931F93CF93DF93CDB7DEB729970FB69F
:101B8000F894DEBF0FBECDBFFC018081918123811F
:101B90003481232B31F09F3F31F491E08F3F19F4D2
:101BA00003C091E001C090E090FD52C67F0185E046
:101BB000DE01119601900D928A95E1F7F7012281DD
:101BC00089819A81222349F00E94A128182F682F29
:101BD00089819A810E94082903C00E94DD28182F5C
:101BE00069817A81812F0E949F258C01F701828172
:101BF000882309F4A0C0980122513F4520313105C6
:101C000008F0C2C08FEF93E00E94962B81119DC017
:101C1000025157ECC52ED12C002379F0C114F4E009
:101C2000DF0609F492C0C6010E94962B811101C003
:101C300001502FEFC21AD20AEFCF1E821F821886E0
:101C40001986BB24B3944AE0A42E86010F5F1F4F70
:101C5000C6010E94962B8E831F82882309F475C0CB
:101C60009FEF980F933060F48F83BE8282E0C80E9E
:101C7000D11CC8010E94962B8887811102C065C0C3
:101C800068018E010A5F1F4FF80180818823E9F205
:101C9000813009F04BC08181813049F44801F2E084
:101CA0008F0E911CF80182810E944C2A0AC082305A
:101CB00051F44801F2E08F0E911CF80182810E94DC
:101CC000D929840135C0833049F44801F2E08F0EF0
:101CD000911CF80182810E94A729F3CF843019F06A
:101CE0000F5F1F4F25C0F80122810E5F1F4F80E05C
:101CF00090E030E0205331092A30310568F4A89E85
:101D0000A001A99E500D1124C901840F951F0F5FDA
:101D10001F4FF8012081EDCF009751F0EFE9FFE070
:101D20003197F1F700C000000197F6CF0E94A20C96
:101D30000F5F1F4FA9CF00319FE5190709F07FC53D
:101D400081E00E9436290E94D61B80918002877014
:101D500009F47EC5F7018281882309F479C582E000
:101D600029960FB6F894DEBF0FBECDBFDF91CF919D
:101D70001F910F91FF90EF90DF90CF90BF90AF90A9
:101D80009F908F900C9420170031FFE51F0711F4EE
:101D900081E005C001312FE5120721F482E00E94A5
:101DA0004229D1CF0236FDE51F0709F068C088231C
:101DB00009F4ACC024E5A22E22E0B22E3AE0932E24
:101DC000F5018491882309F4A1C0813009F04FC046
:101DD0006501FFEFCF1ADF0AF6018491813049F4E3
:101DE0006501F2E0CF0ED11CF60184910E944C2ACD
:101DF00041C0823049F46501F2E0CF0ED11CF601FA
:101E000084910E94D92936C0833049F46501F2E0FB
:101E1000CF0ED11CF60184910E94A7292BC08430DB
:101E200049F56501F2E0CF0ED11CF601249180E066
:101E300090E030E0205331092A30310570F4989E4B
:101E4000A001999E500D1124C901840F951FFFEF29
:101E5000CF1ADF0AF6012491ECCF009759F0EFE991
:101E6000FFE03197F1F700C000000197F6CF0E9424
:101E7000A20C65015601FFEFAF1ABF0AA1CF033FC5
:101E80002CE5120759F190F4083D9CE51907E9F09B
:101E9000093DECE51E07A1F1073DFCE51F07B1F583
:101EA00006E221EE41EE67ED7CE514C0053F2CE52E
:101EB000120701F1C8F0063F9CE5190739F507E262
:101EC00025EE46EE66EF7CE505C007E225EE45EE21
:101ED00068ED7CE5C7010E946C2437CF06E221EE55
:101EE00040EE63EF7CE5F6CF07E225EE44EE64EFCB
:101EF0007CE5F0CF06E221EE42EE65EF7CE5EACF2D
:101F000008E221E045EE69ED7CE5E4CFF70182814E
:101F1000882309F445C11092F0040330FDE51F0742
:101F200058F40A3F2CE5120760F4C80182509C4522
:101F3000449708F01FC105C001368DE5180709F068
:101F400019C10E9434169093FD048093FC04003163
:101F50009CE5190709F4CAC008F041C00830FCE547
:101F60001F0709F4A4C0F0F404308CE5180709F445
:101F70008CC068F40230ECE51E0709F482C003301F
:101F80001C4509F0E7C08091FC048260E1C0063086
:101F90002CE5120709F483C008F085C08091FC0489
:101FA0008860D6C00C309CE5190709F490C068F42D
:101FB0000A30FCE51F0709F47EC008F084C00E94C7
:101FC0007D298091FC048068C3C00E308CE5180721
:101FD00009F481C008F086C08091FC0494C00C3FD5
:101FE000ECE51E0709F47BC038F504312CE5120737
:101FF00009F49AC058F402319CE5190709F47AC033
:1020000008F07EC08091FC048F7BA2C00A3FFCE5F3
:102010001F07F1F108F03FC005311C4509F09AC0D7
:102020008091FC0482FB222720F991E0922790FB0B
:1020300082F990FB83F98CC001159DE5190709F41D
:1020400067C050F48091FD040E3FFCE51F07C1F10D
:1020500008F05BC08D7F65C002308DE5180709F47C
:1020600071C008F46DC001361D4509F073C0809140
:10207000FC0484FB222720F991E0922790FB84F94D
:1020800067C08091FC04816063C08091FC0416C02D
:102090008091FD0416C08091FD04826042C0809151
:1020A000FC04806155C08091FC04806251C0809125
:1020B000FC0480644DC08091FC048860846048C04A
:1020C000826081602EC08091FC048E7F41C080912F
:1020D000FC048D7F3DC08091FC04877F39C08091D6
:1020E000FD0414C08091FC048F7E32C08091FC04FA
:1020F0008F7D2EC00E947D298091FC048F7728C09F
:102100008091FC04877F8B7F23C08D7F8E7F09C0E9
:102110008091FD04982F909591708E7F892B90FB74
:1021200081F98093FD0416C00E947D298091FC04F2
:1021300087FB222720F991E0922790FB87F908C0BE
:1021400061E001C060E08EE090E00E94AA2B02C036
:102150008093FC046091FC041091FD0484E090E005
:102160000E94AA2B612F82E290E00E94AA2B0E947B
:102170007D29EBCD8091830206312CE5120709F50C
:102180008A7A91E009F490E090932702882311F075
:1021900065E301C069E288E292E00E94FF230EC07D
:1021A00006311C4509F026C180912702882309F4D5
:1021B0004DC365E388E292E00E94D7230E94C016D7
:1021C000C4CD82720C3CFCE51F0709F4C2C008F0C4
:1021D00045C0063C9CE5190709F4A7C0D8F4033CA8
:1021E000FCE51F0709F497C030F4023C8CE51807A2
:1021F00009F46CC0CEC0043C9CE5190709F490C0FA
:10220000053CECE51E0709F0C4C04CE258E265E36A
:1022100078E2A3C0093CFCE51F0709F490C078F4FC
:10222000073C9CE5190709F485C0083CECE51E074E
:1022300009F0AFC040E258E264E178E28EC00A3CA7
:10224000FCE51F0709F480C00B3C2CE5120709F0E0
:10225000A0C040E856E261E976E27FC0013D8CE52E
:10226000180709F486C0A0F40E3CECE51E0709F43B
:102270007AC008F475C00F3C2CE5120709F476C04B
:10228000003D8CE5180709F084C06EE089E079C054
:10229000043D9CE5190709F472C068F4023DFCE5B1
:1022A0001F0709F469C0033D2CE5120709F071C04E
:1022B00061E088E16BC0053D8CE5180709F464C056
:1022C0000D359DE5190709F440CD63C08091C80420
:1022D00080FF1BC08E7F8093C8046091C8047091FA
:1022E000C9048091CA049091CB040E946E2610927A
:1022F0000805EFEFF0E722E0E150F0402040E1F781
:1023000000C000000E940C2620CD81608093C8048C
:1023100061E086953BC040E858E269E878E21DC07C
:1023200049E858E260E878E218C045E358E26CE218
:1023300078E213C044E158E260E278E20EC04CEF6C
:1023400057E268E078E209C048E058E26CEF77E2D3
:1023500004C041E956E260E876E20E940626F5CC28
:1023600061E081E013C065E082E00BC068E086E0D8
:1023700008C064E18FE005C067E185E102C062E268
:1023800089E10E94F225E1CC61E083E20E943E28CF
:10239000DCCC0A358DE5180741F150F40115ECE568
:1023A0001E07A9F00E3D1C4529F50E945016CDCC04
:1023B0000B352DE51207D9F00C351D45D9F4809168
:1023C000FD0482FB882780F991E0892711C00E94D3
:1023D0007D299FEFE4E3FCE09150E040F040E1F71D
:1023E00000C000000E945023B0CC81E001C080E01A
:1023F0000E940617F701828100811181882349F02C
:10240000C8010E94A128D82E682FC8010E9408295F
:1024100004C0C8010E94DD28D82EB8018D2D0E946D
:102420009F250E94AB148C01982EF701B280A580E5
:10243000A2949FE0A92280918002877099F0BB202E
:1024400089F0812F807F803421F080E2800F8830F6
:1024500048F082E00E942017809180028770DD247E
:10246000D3948111D12CC12EC2948FE0C8228C2D1F
:1024700090E08C30910508F0B3C1FC01E759FF4FA3
:102480000C942E2C812F807F1F70882311F01295C1
:10249000107FBB20B9F0112309F48EC180E2800FB8
:1024A000883010F0911006C080918302182B109391
:1024B000830205C080918202182B109382020E9431
:1024C000C0167AC1802F0E94A729112309F488C160
:1024D000005E1095083010F0911006C080918302C4
:1024E00018231093830205C0809182021823109351
:1024F00082020E94C01674C1812F807F1F708032BB
:1025000011F01295107F992021F0F1E09F1611F142
:1025100030C0BB20B1F0AA2081F021E0A2120DC092
:102520008091FD0482FD5CC180918402182B1817F4
:1025300009F456C11093840253C180918402812B07
:1025400010C0AA2021F081E0A81609F449C10E9418
:10255000BA1627C0BB2041F095E09A1508F440C197
:10256000812F0E949D293CC1E4E0EA1508F438C19E
:1025700018C0BB2049F0AA2099F3F701858180FF9C
:102580001BC18F708583ECCFAA2059F0093309F065
:1025900024C1FFEF27EE83E0F15020408040E1F7B7
:1025A0001AC1812F0E9492291BC1812F8695869581
:1025B000837019F0813059F013C1BB2019F0C801A4
:1025C000937002C080E090E00E944A240FC1BB20BB
:1025D00019F0C801937002C080E090E00E9434249A
:1025E00005C1812F8370A9F5B110FEC0402F42951F
:1025F00046954770440F440F802F8F7090E09C01E8
:10260000042E01C0220F0A94EAF704FF08C08FE0ED
:1026100090E001C0880F4A95EAF7809501C080E0FC
:10262000169516951370123069F088F49091850212
:10263000113019F0822B892302C0922B892B0E9422
:102640004D29D2C0822B909185028927F8CF822B09
:10265000F6CFBB2019F0812F817001C086958823A9
:1026600009F4C2C0402F429546954770440F440F6D
:10267000802F8F7090E09C01042E01C0220F0A94DD
:10268000EAF704FF08C08FE090E001C0880F4A9588
:10269000EAF7809501C080E0169516951370123008
:1026A00059F078F49091B902113019F0822B8923F6
:1026B00009C0922B892B06C0822B9091B9028927E1
:1026C00001C0822B0E9432298FC01F70BB2039F0BD
:1026D000812F0E944229802F0E949D2985C0802F32
:1026E0000E949229812F0E9436297EC0802F92EF6E
:1026F000991659F1991538F0E0EF9E1659F0F1EF5F
:102700009F16F1F055C023EF921631F194EF991610
:1027100081F14EC0BB2079F0E4E0EA1508F460C016
:102720001F7181E090E001C0880F1A95EAF790913F
:10273000B90289271BC0F5E0FA1508F451C0F0CFA3
:10274000BB2029F0812F8F7126C0BB20D9F3812FA8
:102750008F710E94362944C0BB2039F01F7181E07F
:1027600001C0880F1A95EAF701C080E00E94322963
:1027700037C0BB2099F01F71812F0E9442298091A0
:10278000FD0482FD07C028E0129FC0011124836070
:1027900080938002812F0E94422922C081E00E9402
:1027A000201781E08A15E0F482E00E94201718C00B
:1027B000BB2031F0AA2031F2802F0E94D92910C00D
:1027C000AA2029F2893349F49FEFE7EEF3E0915014
:1027D000E040F040E1F700C00000802F0E94A729F0
:1027E00088EF8C0D843010F40E946024DD2081F18C
:1027F0008091800280FD2CC0F7011282859585951D
:1028000085950E944229C7010E94B00D80918002E7
:1028100085958595859529960FB6F894DEBF0FBEF0
:10282000CDBFDF91CF911F910F91FF90EF90DF907F
:10283000CF90BF90AF909F908F900C94362901312C
:10284000EFE51E0709F0AECA82E07BCA69E2B2CCAE
:1028500029960FB6F894DEBF0FBECDBFDF91CF91A2
:102860001F910F91FF90EF90DF90CF90BF90AF90AE
:102870009F908F900895982F92959F7019F0892FAF
:1028800024E001C020E0982F9695969511F02E5FD8
:10289000892F982F969509F02F5F822F089580E059
:1028A00008959091FC0492FF0DC0282F28712830C4
:1028B00019F4877F846006C0282F2471243011F416
:1028C0008B7F886093FF0DC0282F2871283119F461
:1028D000877E846106C0282F2471243111F48B7EF9
:1028E00088612091FD0420FF0DC0382F38713830E9
:1028F00019F4877F816006C0382F3171313011F4AF
:102900008E7F886021FF0DC0282F2871283119F48F
:10291000877E816106C0282F2171213111F48E7EBE
:10292000886194FD877E0895F894E82FE295EF7012
:10293000F0E031A1282F2F7081E090E001C0880FD6
:102940002A95EAF7982F9095932391A392A1892B2A
:1029500082A378940895CF93DF938238910569F12B
:10296000B0F48133910509F46FC048F489329105C0
:1029700009F465C08A32910509F46BC08AC08533B9
:10298000910509F457C089339105B9F082C0833E9F
:10299000910571F138F4803E9105B1F0823E9105C8
:1029A00011F177C0863E9105B9F1873E9105C9F1D5
:1029B000843E910509F06DC024C02091FC0420FDE7
:1029C00053C021FD51C065C08091FC0480FD46C00C
:1029D0008091FD0480FF48C08091FC0484FD3FC1CC
:1029E00083EE90E03EC18091FC0482FF3AC0F4CFB8
:1029F0008091FC0482FD35C08091FD0480FD34C0CF
:102A0000EBCF8091FD0481FF35C08091FC0484FDF3
:102A100026C187EE90E025C18091FC0483FF27C08A
:102A2000F4CF8091FC0483FD22C08091FD0481FDE0
:102A300021C0EBCF8091FC0485FD1FC021C0809197
:102A4000FC0485FD1DC019C08091FC0486FD1BC0DF
:102A50001DC08091FC0486FD19C015C089E390E07B
:102A600000C182EE90E0FDC080EE90E0FAC086EEFC
:102A700090E0F7C084EE90E0F4C089E290E0F1C00D
:102A800085E390E0EEC08AE290E0EBC081E390E065
:102A9000E8C0811532E5930708F069C0811541E56A
:102AA000940728F0982F8827816F906ADAC0883EB3
:102AB000910568F5803E910508F0D3C0883A9105EC
:102AC000B8F4853A910548F0855AE82FF0E0E859C6
:102AD000FE4F808190E09064C4C08130910509F47C
:102AE000BBC008F4BCC08430910508F4B8C0B9C0BC
:102AF0008F3B910508F0B3C0885AE82FF0E0EE0F45
:102B0000FF1FE559FE4F808191819464AAC0811511
:102B100020E59207F0F09C0174E0369527957A95B0
:102B2000E1F7922F9370482F437021E030E002C00C
:102B3000220F331F4A95E2F73C68392B8F70982F8C
:102B40009695969540E2949FC0011124822B932B79
:102B500088C0811530E4930718F09F70906A81C097
:102B60009C013A9521153F4108F47BC078C0EC01E7
:102B7000C11586E5D807E8F5C11525E5D20748F067
:102B80008C2F0E9451148F7190E0982F88279062AB
:102B900068C0C11534E5D30728F09C2F8827846FBF
:102BA000906A5FC0AE01437055272C2F269526955D
:102BB000C115D34578F481E090E002C0880F991FD9
:102BC0004A95E2F740E2249F90011124822B932B37
:102BD0009C6847C081E090E002C0880F991F4A9529
:102BE000E2F740E2249F90011124822B932B9A68F4
:102BF00038C0C1152AE5D207F8F4C11539E5D30765
:102C000090F08C2F8F700E94511494E0D695C79548
:102C10009A95E1F7CF70D0E0DC2FCC27D0699E01E8
:102C2000282BC9011EC0C11548E5D407C0F09C2F50
:102C30008827806F906A15C0CE019056811590420A
:102C400070F48D2F8F710E945114282F2F71CE0197
:102C500099279062922B05C081E090E002C080E04D
:102C600090E0DF91CF910895CF9384E090E00E94AF
:102C7000962BC82F82E290E00E94962B2C2F30E0FA
:102C8000A901582BCA01CF91089580E090E00E94DD
:102C9000A42B893E9E4F11F40C94D92580E0089511
:102CA00069EE7EEF80E090E00E94C82B60E082E059
:102CB00090E00E94AA2B60E083E090E00E94AA2BA3
:102CC0001092850260E084E090E00E94AA2B60E010
:102CD00082E290E00E94AA2B60E085E090E00E94F2
:102CE000AA2B60E086E090E00E94AA2B6FEF87E0BD
:102CF00090E00E94AA2B40E050E0BA0188E090E00A
:102D00000E94BC2B60E08DE090E00E94AA2B40E086
:102D100050E0BA0188E190E00E94BC2B60E087E1BE
:102D200090E00E94AA2B40E050E0BA018CE190E0D4
:102D30000E94BC2B60E070E080E290E00E94C82B13
:102D400040E050E0BA0188E190E00E94BC2B80E0B6
:102D50000E94AC250E94CA2540E050E0BA018FE0F5
:102D600090E00E94BC2B40E050E0BA0183E190E08B
:102D70000C94BC2B809184028111109284020895DE
:102D80009091830280918202892B20918102982F59
:102D9000922B90932802809184028823D9F0892B6A
:102DA0008093280280911701882331F08091FC04E0
:102DB00087FF02C08EE101C086E0EAE2F2E090E027
:102DC000815028F021912223D9F39F5FF9CF9111EF
:102DD0000E94BA16E091F304F091F4043097A9F040
:102DE00080911701882359F08091FC0487FF07C068
:102DF000809128028093290285E080932802028036
:102E0000F381E02D88E292E009940895CF93C09178
:102E1000FD04C2FB992790F9981781F080FBC2F955
:102E2000C093FD046091FC0484E090E00E94AA2B12
:102E30006C2F82E290E0CF910C94AA2BCF91089551
:102E4000209180028095822380938002982F977032
:102E500041F430E0482F082E000C550B241735079D
:102E600021F49091FD0492FF07C085958595859585
:102E70000E94362910928002089580917F029091DD
:102E80004E02891719F08F5F8770FBCF08950F935B
:102E90001F93CF93DF9380914D0282958F7009F03D
:102EA0005DC080914A02882309F458C080917F0256
:102EB00010914E026091480270914902C0914B02FC
:102EC000D0914C0291E06F3F09F090E0292F06E08D
:102ED000811709F443C0209721F07F3F21F030E0B3
:102EE00003C031E001C0322F90E030FD34C0089FB4
:102EF000F001099FF00D1124DF01A15BBD4F119678
:102F00003C911197371327C03C91361324C0129679
:102F10003C91129731111FC013964D915C911497FB
:102F20004C1B5D0B483C5105B0F480914D028F70F5
:102F3000806180934D02EC5AFD4F80818F708061DB
:102F4000808388E492E00E94B00DDF91CF911F91C1
:102F50000F910C943D1701968770BACFDF91CF91F6
:102F60001F910F9108959F92AF92BF92CF92DF92DF
:102F7000EF92FF920F931F93CF93DF93CDB7DEB7FE
:102F800061970FB6F894DEBF0FBECDBF8C0185E010
:102F9000F801DE011D9601900D928A95E1F7F80186
:102FA000E280909148026091490240914B02509119
:102FB0004C024115510531F06F3F31F481E09F3FE4
:102FC00019F403C081E001C080E0F82FF1709F2E5A
:102FD00080FD1AC1F80130812181C380D48088E44A
:102FE000A82E82E0B82EF0904A02F601E41BF50B01
:102FF000FF2009F4C6C080914D02E83CF10508F0BD
:1030000091C0482F407F09F050C0621311C0931344
:103010000FC0FE2CE1100CC08F70806180934D02B8
:10302000C5010E94B00D80914D02F801858329C130
:10303000CD2831F02F3F31F481E03F3F19F403C038
:1030400081E001C080E080FD03C081E08E2502C0E8
:1030500080E090E0F82FF170FF2E80FF1CC080917F
:103060007F0240914E0256E0841709F4E8C090E0D8
:10307000589FF001599FF00D1124E15BFD4F6181D4
:10308000261306C06081631303C06281E61203C089
:1030900001968770E9CFFE2CEE2009F4F2C08091F2
:1030A0004D02816080934D0249C0621306C09313A4
:1030B00004C0E11002C0F80186C0C8010E94512975
:1030C000882351F1EE2041F120914D02822F82950B
:1030D0008F7090E0029774F08091480290914902BD
:1030E00098878F831986DB86CA862C87CE01079640
:1030F0000E94B00D86E0F801A8E4B2E001900D92C4
:103100008A95E1F70E9447170AC06217C9F0C80103
:103110000E94512981111EC0C8010E94B00DFF24D8
:10312000F394AFC0482F407F81F788E492E00E947B
:10313000B00D86E0F50111928A95E9F7F12CA1C056
:103140009313E5CFE110E3CFF8018583C8010E9416
:10315000B00D54C0EE2001F320914D02822F8295D4
:103160008F7090E0029734F280914802909149026A
:103170009A8389831B82DD82CC822E83CE010196C5
:10318000B7CFE83CF105D0F5FE2CEE2029F2621312
:1031900027C0931325C020914D0220FD18C0822F17
:1031A00082958F70482F50E04115510581F0F8014C
:1031B00025834F30510541F08F5F982F9295907F76
:1031C000822F8F70892B8583C8010E94B00D86E005
:1031D000F801A8E4B2E001900D928A95E1F751C0A0
:1031E000C8010E945129811185CF80914D028160D3
:1031F00080934D02C8010E94B00D43C086E0F501E6
:1032000011928A95E9F73DC0EE2009F485CFC801F7
:103210000E945129F82E882309F47ECF86E0F80118
:10322000A8E4B2E001900D928A95E1F780914802FE
:10323000909149020E94D0280E94471722C03D87E2
:103240002E878D859E850E94D028292F22952F704C
:10325000223028F49F7039F0811105C00BC0243052
:1032600028F49F7049F4805E883020F0C8010E94E5
:10327000B00D9F2CF92C05C0F8019581907F99F72E
:10328000F9CF8F2D61960FB6F894DEBF0FBECDBF7C
:10329000DF91CF911F910F91FF90EF90DF90CF9032
:1032A000BF90AF909F9008957F928F929F92AF9220
:1032B000BF92CF92DF92EF92FF920F931F93CF9323
:1032C000DF9300D000D01F92CDB7DEB7AE014F5FC5
:1032D0005F4F7A0185E0DA011D928A95E9F707E4EC
:1032E00011E06A014CE4842E41E0942EAA24A394B8
:1032F000B12CF80180818F3F09F448C0F894E82F81
:10330000E295EF70F0E021A18F70A50102C0440F9B
:10331000551F8A95E2F7CA01922F982B91A392A18B
:103320008095892382A3789400C0ECE4F1E020E04A
:1033300030E0712C81918F3FB9F0A82FA295AF702A
:10334000B0E090964C9150E08F70DA0102C0B595D4
:10335000A7958A95E2F7A0FD07C08A2D022E01C02D
:10336000880F0A94EAF701C080E0782A2F5F3F4F68
:1033700024303105F9F6F80180818F3F11F00E9469
:103380009414F0EAFA95F1F7D6017C920F5F1F4F83
:10339000BFEFCB1ADB0A8016910609F0AACF45E0F1
:1033A00050E0B70182ED91E00E949A2D8C01DD245E
:1033B000D394892B09F4D12C0115110541F085E036
:1033C000F701A2EDB1E001900D928A95E1F7F0903E
:1033D0008902FF2009F43FC00E94A22320918702A6
:1033E00030918802FC01E21BF30B9F01909388024D
:1033F00080938702EF3FF10509F020F4EF2B09F4E9
:1034000074C002C02FEF30E0109289021092860241
:10341000E091D001F091D101BF016C5E7F4F90E04F
:1034200030E0AF014C5F5F4F8081882341F0281767
:1034300018F010829F2D03C0821B80833F2D319690
:10344000E417F50789F76E177F0759F7309389025C
:10345000909386024AC0012B09F43FC00E94A22328
:1034600090938802809387028091D0019091D1013E
:10347000C090890262ED71E0A2E2B2E07C01F4E169
:10348000EF0EF11CAA24A394B12C32E0932EFB0181
:103490003191BF012C913227FC0140E050E08501C1
:1034A000042E01C0000F0A94EAF7832E802239F01F
:1034B0008080811004C090822027CC24C394319650
:1034C0004F5F5F4F4430510551F704962D93E81636
:1034D000F906E9F6C09289020DC080E0909186025B
:1034E000992341F08111C0CFB9CF012B09F0BCCF96
:1034F00081E0F4CF8D2D0F900F900F900F900F90D3
:10350000DF91CF911F910F91FF90EF90DF90CF90BF
:10351000BF90AF909F908F907F9008958091B1025F
:1035200087FF11C08091E80082FD05C08091AF0245
:103530008111F8CF11C08091E8008B770BC080918A
:10354000AF02882349F08091E80080FFF8CF809196
:10355000E8008E778093E8000895982F973068F5FB
:103560009093E900981739F07091EC002091ED00EC
:103570005091F00003C0242F762F50E021FD02C0AF
:103580009F5FECCF3091EB003E7F3093EB003091AA
:10359000ED003D7F3093ED003091EB0031603093D2
:1035A000EB007093EC002093ED005093F00020911D
:1035B000EE0027FDE5CF80E008958F708093E9004D
:1035C00081E008952091B7023091B802261737079D
:1035D00048F06115710539F42091E8002E772093A9
:1035E000E80001C0B901FC0120E06115710579F125
:1035F0008091AF028823F1F18530F1F18091E800EC
:1036000083FD3CC08091E80082FD2EC08091E800DF
:1036100080FFEBCF2091F3008091F20090E0922B9D
:103620006115710551F08830910538F4219120938E
:10363000F100615071090196F3CF21E0089709F07C
:1036400020E08091E8008E778093E800CECF2111B2
:10365000CFCF0AC08091AF02882361F0853061F03E
:103660008091E80083FD0AC08091E80082FFF2CFDC
:1036700080E0089582E0089583E0089581E0089550
:10368000BC0184E00C942623BC0183E00C94262327
:10369000CF93DF938A3011F481E003C08D3029F499
:1036A00080E0DF91CF910C940525682F8091C304B1
:1036B0009091C40426E0FC01ADEBB4E001900D92C2
:1036C0002A95E1F7603E30F026E0FC0111922A9540
:1036D000E9F70AC0F6E06F9FB001112469537C4FEF
:1036E00046E050E00E948D2BC091C304D091C404E9
:1036F00046E050E0BE018DEB94E00E949A2D892BAC
:1037000049F19E012D5B3240A90185E05695479510
:103710008A95E1F781E090E0BC0102C0660F771F57
:103720004A95E2F74091BB025091BC02462B572BC1
:103730002B5F3F4F65E0369527956A95E1F702C00C
:10374000880F991F2A95E2F7842B952B9093BC0242
:103750008093BB029E01275B32404091BA02642FE6
:1037600070E0C9010E94792B481B463010F4240FE9
:10377000311D211582E0380710F020E030E023549D
:103780003D4F3093C4042093C304DF91CF9108953B
:10379000CF93DF93EC01FE018491882321F00E94F6
:1037A000481B2196F8CFDF91CF9108958091B902FF
:1037B000982F9670963011F4886001C0877F0C9422
:1037C0003229EF92FF920F931F93CF93DF93EC0177
:1037D0007B0164E670E088E70E94702A8C01EC0EA1
:1037E000FD1ECE15DF0561F017FD0AC0FE018491B4
:1037F00064E670E00E94F12A8C012196892B89F3FE
:103800000E94752BC801DF91CF911F910F91FF90FE
:10381000EF9008951F93CF93DF93CDB7DEB7AA97AC
:103820000FB6F894DEBF0FBECDBFE1EBF2E08091A2
:10383000F100819342E0E93BF407C9F78091B202BD
:10384000833009F462C030F4813071F0823009F4C1
:103850009CC0B3C08A3009F488C08B3009F46DC0B5
:10386000893009F0AAC020C08091B102813A09F0E4
:10387000A4C08091E800877F8093E8008091B50222
:103880009091B602892B21F460E28DE892E003C0AA
:1038900060E080E090E070E00E94E21A8091E80031
:1038A0008B778093E80089C08091B102813209F062
:1038B00084C08091B5029091B602009719F00297EA
:1038C00009F07BC08091E800877F8093E8008091B9
:1038D000E80082FD05C08091AF028111F8CF6DC074
:1038E0002091F3008091F20090E0922B029729F44E
:1038F0008091F1008B7F813021F48091F1008093E1
:103900008C028091E8008B7754C08091B102813A9B
:1039100009F053C08091B5029091B602892B09F04D
:103920004CC08091E800877F8093E8008091E80098
:1039300080FFFCCF8091170137C08091B1028132A6
:10394000E1F58091B5029091B602892BB1F5809195
:10395000E800877F8093E8000E948E1A8091B3026E
:10396000809317010E947D2928C08091B102813285
:1039700021F58091E800877F8093E8000E948E1AED
:103980008091B40280938B0218C08091B102813A79
:10399000A1F48091E800877F8093E8008091E8009F
:1039A00080FFFCCF80918B028093F1008091E80032
:1039B0008E778093E8000E948E1A8091E80083FF42
:1039C000DDC18091B1029091B202492F50E04A309E
:1039D000510508F0D3C1FA01EB58FF4F0C942E2C7F
:1039E000803821F0823809F0C9C108C08091AD0249
:1039F0009091AE02992389F082600FC08091B50248
:103A00008F70873008F0BAC18093E9008091EB0095
:103A100085FB882780F91092E9009091E800977F54
:103A20009093E8008093F1001092F10070C1282F6C
:103A30002D7F09F0A3C1882319F0823061F09EC167
:103A40008091B302813009F099C1933009F080E090
:103A50008093AE022EC08091B30281112AC0809162
:103A6000B5028F702FEF280F263008F087C18093A2
:103A7000E9002091EB0020FF1CC0933021F48091DD
:103A8000EB00806214C09091EB0090619093EB008A
:103A900021E030E0A90102C0440F551F8A95E2F7EA
:103AA0004093EA001092EA008091EB0088608093D6
:103AB000EB001092E9008091E800877F8093E80096
:103AC0000E948E1A5BC1811159C11091B3021F77F8
:103AD0008091E3008078812B8093E3008091E8005F
:103AE000877F8093E8000E948E1A8091E80080FF13
:103AF000FCCF8091E30080688093E300111102C045
:103B000082E001C083E08093AF0238C180588230E8
:103B100008F034C12091B3023091B4022C3D53E03F
:103B2000350779F583E08A838AE289834FB7F89471
:103B3000DE01139620E03EE051E2E32FF0E05093E7
:103B40005700E49120FF03C0E295EF703F5FEF70F4
:103B50008E2F90E0EA3010F0C79601C0C0968D938A
:103B60009D932F5F243149F74FBF8091E800877FF5
:103B70008093E8006AE270E0CE0101960E94E21AAA
:103B8000B4C08091B5029091B602432F55274330BF
:103B90005105A9F068F44130510509F4FEC04230E6
:103BA000510509F0EBC08BE590E0E6E2F3E04BC095
:103BB0004132510529F14232510589F1DFC0C90175
:103BC000992781309105A1F058F0029709F0D6C0ED
:103BD000E3E9F3E0E4918E2F90E0E3E9F3E030C015
:103BE000E3ECF3E0E4918E2F90E0E3ECF3E028C007
:103BF000E3EAF3E0E4918E2F90E0E3EAF3E020C003
:103C00008330910508F0BAC0880F991FFC01EE556A
:103C1000FE4F0190F081E02D89E090E014C08330E8
:103C2000910508F0ABC0FC01EE0FFF1FE456FE4FFC
:103C30000190F081E02DDC01A756BE4F8C9190E001
:103C4000009709F49BC02091E800277F2093E800AB
:103C50002091B7023091B8022817390708F4C9013A
:103C600040E0009789F12091AF02222309F43DC082
:103C70002530D9F12091E80023FD37C02091E800DC
:103C800022FD2FC02091E80020FFEBCF4091F300F0
:103C90002091F20030E0342B009759F028303105A4
:103CA00040F444914093F100319601972F5F3F4FCC
:103CB000F3CF41E02830310509F040E02091E800E1
:103CC0002E772093E800CDCF4111CDCF0AC080914F
:103CD000AF02882351F0853041F08091E80083FDE8
:103CE00004C08091E80082FFF2CF8091E8008B77DA
:103CF0008093E80043C0803809F040C08091E8001C
:103D0000877F8093E8008091B0028093F1008091DA
:103D1000E8008E77D3CE811131C08091B3029091AB
:103D2000B4029927029754F58091E800877F809329
:103D3000E8001091B3021093B0020E948E1A111184
:103D400006C08091E30087FD02C081E001C084E0ED
:103D50008093AF0242E061EC81E00E94AD1A42E242
:103D600061EC84E00E94AD1A42E261EC82E00E94C4
:103D7000AD1A42E260EC83E00E94AD1A8091E80047
:103D800083FF10C08091E800877F8093E8008091D6
:103D9000EB0080628093EB0005C082E190E0E1E8F7
:103DA000F3E051CFAA960FB6F894DEBF0FBECDBF99
:103DB000DF91CF911F9108951F920F920FB60F922E
:103DC00011242F933F934F935F936F937F938F9320
:103DD0009F93AF93BF93CF93DF93EF93FF93C091E4
:103DE000E900CF708091EC00D82FD17080FDD0E831
:103DF0001092E9008091F000877F8093F000789422
:103E00000E940A1C1092E9008091F0008860809363
:103E1000F000CD2BCF70C093E900FF91EF91DF91BF
:103E2000CF91BF91AF919F918F917F916F915F9152
:103E30004F913F912F910F900FBE0F901F901895AB
:103E4000E8EDF0E080818E7F80831092E200109296
:103E5000DA001092E100A0EEB0E08C9181608C93CA
:103E600080818F77808319BCA7EDB0E08C918E7F25
:103E70008C9380818F7E808310928A020895CF92E6
:103E8000DF92EF92FF920F931F93CF93DF93C8EDD2
:103E9000D0E088818F7E8883E7EDF0E080818160CB
:103EA000808384E082BF81E080938A0288818E7F54
:103EB000888302EE10E0F80110821092DA0081EEA1
:103EC000C82ED12CF601108288818F778883888153
:103ED0008068888388818F7D888319BC1092AF02A7
:103EE0001092B0021092AE021092AD0290EEE92E46
:103EF000F12CF70180818B7F8083888181608883AA
:103F000042E060E080E00E94AD1AF60180818E7F81
:103F10008083F801808181608083808188608083D4
:103F2000F70180818E7F8083888180618883DF9123
:103F3000CF911F910F91FF90EF90DF90CF90089558
:103F40001F920F920FB60F9211242F933F934F930E
:103F50005F936F937F938F939F93AF93BF93EF93F1
:103F6000FF938091E10082FF09C08091E20082FF0F
:103F700005C08091E1008B7F8093E1008091DA00A1
:103F800080FF2AC08091D80080FF26C08091DA008F
:103F90008E7F8093DA008091D90080FF18C080E185
:103FA00089BD82E189BD09B400FEFDCF81E0809327
:103FB000AF0280918A0281110FC00E94201F0E94CF
:103FC0003F1F8091E20084608093E20005C019BC2D
:103FD0001092AF0210928A028091E10080FF17C018
:103FE0008091E20080FF13C08091E2008E7F809379
:103FF000E2008091E20080618093E2008091D8002D
:1040000080628093D80019BC85E08093AF028091D4
:10401000E10084FF2EC08091E20084FF2AC080E18D
:1040200089BD82E189BD09B400FEFDCF8091D80031
:104030008F7D8093D8008091E1008F7E8093E10096
:104040008091E2008F7E8093E2008091E2008160A7
:104050008093E2008091B002882311F084E007C0D1
:104060008091E30087FD02C081E001C083E080937E
:10407000AF028091E10083FF27C08091E20083FFBF
:1040800023C08091E100877F8093E10082E08093EC
:10409000AF021092B0028091E1008E7F8093E10028
:1040A0008091E2008E7F8093E2008091E200806147
:1040B0008093E20042E060E080E00E94AD1A8091CF
:1040C000F00088608093F000FF91EF91BF91AF9175
:1040D0009F918F917F916F915F914F913F912F9120
:1040E0000F900FBE0F901F9018952091E400309113
:1040F000E50095E64091EC00842F817040FF23C0DD
:104100008091E80080FD1DC08091AF02882399F066
:10411000853099F08091EB0085FD11C04091E4005D
:104120005091E5002417350729F3915011F09A01B9
:10413000E1CF84E0089582E0089583E0089581E06E
:10414000089580E008954091E80042FFDDCF089592
:10415000EF92FF920F931F93CF93DF937C018B011C
:104160000E947520811119C0E70101151105A1F008
:104170008091E80085FD0AC08091E8008E778093E9
:10418000E8000E947520882381F307C089918093FD
:10419000F10001501109E9CF80E0DF91CF911F912B
:1041A0000F91FF90EF9008950895089580918C02EB
:1041B0000895CF93DF9320911701222339F02091A6
:1041C000FC0427FF03C060E224E002C068E021E0B5
:1041D0002093E9002FEF3091E800215035FD06C013
:1041E00035ED3A95F1F700002111F5CF2091E80067
:1041F00025FF1DC0EC0180911701811105C040E031
:1042000050E068E070E003C070E040E050E0CE01B4
:104210000E94A8208091E8008E778093E80080E2D9
:10422000FE01ADE8B2E001900D928A95E1F7DF91D1
:10423000CF910895EF92FF920F931F93CF93DF9347
:104240008C01CDECD4E0E12CF12CF8018481F4E078
:10425000EF16F1041CF4882339F002C0811104C068
:104260009E014091CB0402C09E0140E06091CA04CF
:104270008091C9040E94B1268FEFE81AF80A2396AC
:1042800099E0E916F10409F70E940C26F8018481EF
:1042900090E00196817099278483DF91CF911F91DF
:1042A0000F91FF90EF9008958F929F92AF92BF92DF
:1042B000CF92DF92EF92FF920F931F93CF93DF93F2
:1042C000EC014C81042F10E09801D8010E94432C8E
:1042D0009B01AC010E94592C6B017C01E0E2F0E0F3
:1042E000E01BF10BA5E5B0E09B01AC010E94592C4D
:1042F0004B015C019F01DF010E943B2C9B01AC0143
:104300000E94642C9B01AC012C0D3D1D4E1D5F1DB8
:10431000C501B4010E940C2C822FF22E99E2921753
:1043200028F093E0299F900111240DC025E530E08D
:10433000281B3109C901880F991F280F391F37FF22
:1043400002C02F5F3F4F35952795122F10959DEC9A
:10435000C92E94E0D92E00E085E5E82EEF1801FD86
:1043600002C08E2D01C08F2D9601412F6091CA048D
:104370000E94B1260F5F83E0C80ED11C093079F787
:104380000E940C268C81811102C091E003C0803212
:1043900019F49FEF90931A0190911A01890F8C8361
:1043A000DF91CF911F910F91FF90EF90DF90CF9011
:1043B000BF90AF909F908F9008950F931F93CF93CE
:1043C000DF93CDECD4E0FE0111821082128233968D
:1043D00084E0E83EF807C1F700E010E08091C604F1
:1043E000082E000C990B0817190794F080911901F9
:1043F000082E000C990B8017910754F09E014091F4
:10440000CB046091CA048091C9040E94B12603C004
:10441000198218821A820F5F1F4F239609301105E7
:10442000E9F60E940C26809118019091C604980F1D
:104430009093C60420911901280F20931901121698
:1044400014F498301CF0819580931801DF91CF917E
:104450001F910F910895BF92CF92DF92EF92FF923A
:104460000F931F93CF93DF93FC01828180FF03C0E2
:10447000DD24DA9402C0DD24D3940DEC14E0C0E016
:10448000D0E029E0B22EF80111821082128294E06D
:10449000E92EF12CC12C8091C5048C0D8A302CF0B2
:1044A0006B2D0E94EA2B892F02C087FD875F082EA3
:1044B000000C990BC817D90791F48091CB048E9DFD
:1044C000A0018F9D500D1124559547955595479501
:1044D00098016091CA048091C9040E94B126CD0C54
:1044E000F1E0EF1AF108B9F621960D5F1F4FC930C0
:1044F000D10549F60E940C268091C50491E0D9129D
:1045000006C0811102C088E007C0815005C090E05C
:104510000196BE010E94F82B8093C504DF91CF91D4
:104520001F910F91FF90EF90DF90CF90BF90089573
:10453000EF92FF921F93CF93DF93EC018DECE82E67
:1045400084E0F82E10E08C8197014091CB046091BB
:10455000CA04810F0E94B126145E83E0E80EF11CAC
:104560001C3F89F70E940C269A818C8190FF02C023
:104570008F5F01C081508C83DF91CF911F91FF909D
:10458000EF9008950F931F93CF93DF9300D01F9266
:10459000CDB7DEB78C018091C70481110AC09E019E
:1045A0002F5F3F4F4FEF6FEF0E94B1268A818093BC
:1045B000C704F8018481813051F028F0823061F421
:1045C0004091C7040AC08091C70440E007C06091D1
:1045D000C70440E080E003C040E080E060E00E946B
:1045E0004226F801848190E0019663E070E00E9429
:1045F000F82B84830F900F900F90DF91CF911F9134
:104600000F910895CF93DF93EC01E8ECF4E0438140
:1046100062818C810E9447278C818F5F8C83DF9120
:10462000CF910895CF93DF93EC01EC81F0E0E95F47
:10463000F64F4491E8ECF4E0628181810E944727C3
:104640008C818F5F8C83DF91CF9108959091AF0221
:10465000943029F58093FE04709300056093FF0465
:104660009093E9008FEF9091E800815095FD06C08E
:1046700095ED9A95F1F700008111F5CF8091E80052
:1046800085FF0DC040E050E063E070E08EEF94E005
:104690000E94A8208091E8008E778093E80008951A
:1046A00087E797E790930108809300089AE088E1F4
:1046B0000FB6F894A895809360000FBE90936000A9
:1046C000FFCF78941F920F920FB60F9211248F9301
:1046D0009F93AF93BF938091F8049091F904A091B8
:1046E000FA04B091FB040196A11DB11D8093F8045A
:1046F0009093F904A093FA04B093FB04BF91AF9197
:104700009F918F910F900FBE0F901F9018959C0155
:104710004FB7F8948091F8049091F904A091FA04AD
:10472000B091FB044FBF821B930B08952FB7F894F1
:104730006091F8047091F9048091FA049091FB045F
:104740002FBF08952FB7F8948091F8049091F90441
:10475000A091FA04B091FB042FBF08951F920F920D
:104760000FB60F9211248F939F93AF93BF938091B5
:10477000F704811113C08091F8049091F904A0917D
:10478000FA04B091FB044196A11DB11D8093F80479
:104790009093F904A093FA04B093FB04BF91AF91F6
:1047A0009F918F910F900FBE0F901F9018952091A1
:1047B00017012223C9F02091FC0427FF15C0262FE2
:1047C0002695269526952E31C8F4FC01E20FF11DA1
:1047D000677081E090E001C0880F6A95EAF78095E4
:1047E0009281892382830895FC01069622816213B7
:1047F00001C012823196E817F907C1F70895209198
:1048000017012223C1F02091FC0427FF14C0262F9A
:104810002695269526952E3130F5FC01E20FF11DE7
:10482000677081E090E001C0880F6A95EAF7928195
:10483000892B82830895FC0132962FEF30E041915D
:10484000641789F02F3F19F4411101C0232F3F5FF6
:104850003630A9F72F3F39F0FC01E20FF11D27FD9B
:10486000FA956283089508952091F5043091F60435
:104870002817390771F09093F6048093F504E091BE
:10488000F304F091F404309721F00084F185E02DD9
:10489000099408952091F1043091F2042817390702
:1048A00071F09093F2048093F104E091F304F0919D
:1048B000F404309721F00680F781E02D09940895E3
:1048C000E091F304F091F404309721F00190F0812D
:1048D000E02D099480E008950F931F93CF93DF9309
:1048E000C42FD22FFC0182818823C9F04093F004A9
:1048F0000E94A2239093EF048093EE0480E28C0F39
:10490000883008F057C0C77081E001C0880FCA9591
:10491000EAF7DF91CF911F910F910C949D2980911F
:10492000F004481330C08091EE049091EF040E948F
:104930008723883C910538F510E21D0FCD17B9F09B
:1049400080E28C0F883040F4C77081E001C0880F8E
:10495000CA95EAF70E949229183028F581E09D2F28
:10496000977001C0880F9A95EAF70E949D29802FC1
:104970000E944C2A1830F0F4D77081E001C0880FF3
:10498000DA95EAF70AC080E28C0F883098F4C77095
:1049900081E001C0880FCA95EAF7DF91CF911F919E
:1049A0000F910C949229802FDF91CF911F910F913D
:1049B0000C944C2ADF91CF911F910F910895809113
:1049C000ED048823F9F00E949623DC01CB01805A84
:1049D0009541AF4FBF4F8093E8049093E904A093B3
:1049E000EA04B093EB048091EC0481110BC062E007
:1049F00070E08FE79AE00E94E11B892B19F481E0B7
:104A00008093EC048091EC040895CF93E82F2091DB
:104A1000C3043091C4042D5B32404091BA02642F2C
:104A200070E0C9010E94792B481B842FEE2351F0BE
:104A300066E00E94DE2BC82FC150A8F080E20E94E1
:104A4000481BFACFA901480F511D4115524018F0DB
:104A500080E020E030E0280F311D23543D4F30939B
:104A6000C4042093C304CF910895CF93DF93C7EC80
:104A7000D0E060E0CE010E94AA2B2196C11584E00F
:104A8000D807B9F7DF91CF910895CF92DF92EF92D7
:104A9000FF920F931F93CF93DF93C0E0D0E08E017E
:104AA000085D1F4F6E0188E0C80ED11CFE01E95F52
:104AB000F54FE590F4906F2DCE0187960E94AA2BBA
:104AC0006E2DCE0188960E94AA2B2296CC15DD056C
:104AD00069F70C171D0731F7E801003A1105F9F6DF
:104AE000DF91CF911F910F91FF90EF90DF90CF90CA
:104AF00008950F931F93CF93DF93C42FD0E0CC0F73
:104B0000DD1F28E0629FC00DD11D112438E2839F74
:104B1000C00DD11D1124CE0187960E94962B082F1F
:104B200010E0102F0027CE0188960E94962B980146
:104B3000282BC901DF91CF911F910F910895462F26
:104B4000843038F4753028F4643018F4672F0C94EE
:104B5000792580E090E00895CF93C82F811102C09D
:104B60006FEF01C061E283E290E00E94AA2BC111C5
:104B700002C06FEF01C061E184E290E00E94AA2BC5
:104B8000C11102C06FEF01C066E085E290E0CF91F5
:104B90000C94AA2B80E00E94AC2560E086E290E0B5
:104BA0000E94AA2B0E9445250E94352581E00C9485
:104BB000AC2583E290E00E94962B813281F484E25E
:104BC00090E00E94962B813151F485E290E00E94A2
:104BD000962B91E0863009F090E0892F01C080E0AB
:104BE00081700895CF93DF93C82FD62F0E9453264C
:104BF0008C1730F08D1720F4DF91CF910C94892819
:104C000061E08C2FDF91CF910C943E28882311F026
:104C1000FA0101C0FB0109948091C80480FF0AC019
:104C2000849A81B38F7E91B390612FB7F894EDECA5
:104C3000F4E00BC0EDECF4E01182108212823396A6
:104C400034E0E83EF307C1F7EBCF34E0E83EF3078A
:104C500089F0319148E091BB000000C037FF81BB73
:104C6000330F000000C000C000C081BB00C04A95E7
:104C700091F7EBCF2FBF8FE594E00197F1F700C0DC
:104C8000000008959091C80490FF0CC0EDECF4E092
:104C9000818360834283339694E0E83EF907C1F74D
:104CA0000C940C2608958091C80480FF02C086955C
:104CB000089580E008958091C804282F269530E05B
:104CC0002115310519F48170826005C02532310546
:104CD00024F0817088648093C8040895CF92DF9295
:104CE000EF92FF926B017C010E945B26B701A60147
:104CF00088E090E0FF90EF90DF90CF900C94BC2B79
:104D00008091CC04882319F081508093CC04609169
:104D1000C8047091C9048091CA049091CB040C948A
:104D20006E268091CC04833018F48F5F8093CC047E
:104D30006091C8047091C9048091CA049091CB0419
:104D40000C946E26E8ECF4E083E0808311828FEF10
:104D500082838383148260817181828193810C9428
:104D60006E26AF92BF92CF92DF92EF92FF920F9397
:104D70001F93CF93DF93E82EF62EE901E42FF0E0A6
:104D8000611106C0EF57F54FE4914E2F2E2F71C0E1
:104D9000062F10E0EF57F54F4491F42FC42ED12C7D
:104DA00026E0829FC00111242FEF30E0B9010E945C
:104DB000792B5BEA5603C001579F900D11248E0D8D
:104DC000911D8E0D911D582F550F580FD901A01B05
:104DD000B10BAC9DC001AD9D900DBC9D900D1124FB
:104DE000E92FF59ED0011124AB2FBB277901EA1AD8
:104DF000FB0AEC9CD001ED9CB00DFC9CB00D112485
:104E00005901A51AB108A09E7001A19EF00CB09E98
:104E1000F00C1124EF2CFF242E193F092C9D80014A
:104E20002D9D100D3C9D100D1124212F6230710518
:104E300091F048F461157105E1F061307105B9F444
:104E4000242F4B2F16C06430710569F040F0663096
:104E5000710579F00CC0242F492FE12F0AC0492F8A
:104E6000EF2F2B2F06C0292FE42F412F02C0292F0F
:104E7000EB2F49832883EA83DF91CF911F910F9114
:104E8000FF90EF90DF90CF90BF90AF900895CF93B9
:104E9000DF9300D01F92CDB7DEB79091C80490FF8A
:104EA0000AC09E012F5F3F4F0E94B1264B8169814E
:104EB0008A810E9442260F900F900F90DF91CF9130
:104EC00008955F926F927F928F929F92AF92BF925E
:104ED000CF92DF92EF92FF920F931F93CF93DF93C6
:104EE00000D01F92CDB7DEB7182F762E042F622E7A
:104EF0009091C80490FF6DC0E92FE695AE2FB0E009
:104F0000A855BE4F8C91809307059E7F923061F427
:104F10009E012F5F3F4F812F0E94B1264B816981F7
:104F20008A810E94422643C0823019F40091CB044A
:104F30003EC0863019F41091C90439C08930D9F3C4
:104F40008931A9F5E9518E2F8170582EE695F0E050
:104F5000EF57F44FA590B4908DECC82E84E0D82E76
:104F6000E12CF12CBB2499E0892E912CAE9CC00140
:104F7000AF9C900DBE9C900D1124B4010E94792B22
:104F8000812F511002C0860F01C0861B9601402F51
:104F9000672D0E94B1268FEFE81AF80A83E0C80E49
:104FA000D11C89E0E816F10409F70E940C26109341
:104FB000C9047092CA040093CB04662051F060913A
:104FC000C8047091C9048091CA049091CB040E94D6
:104FD0006E260F900F900F90DF91CF911F910F9140
:104FE000FF90EF90DF90CF90BF90AF909F908F9009
:104FF0007F906F905F900895E8ECF4E0438121E1A9
:10500000421B08F440E021E0628181810C94612719
:10501000E8ECF4E0438121E1420F08F44FEF21E096
:10502000628181810C946127E8ECF4E0628121E1E6
:10503000621B08F460E021E0438181810C946127C8
:10504000E8ECF4E0628121E1620F08F46FEF21E007
:10505000438181810C946127E8ECF4E0818121E0B7
:105060004381628188500C946127E8ECF4E08181EF
:1050700021E043816281885F0C9461279091C8048C
:1050800090FF3DC09170811102C0926006C08532D0
:1050900010F0986402C0880F982B9093C804662380
:1050A00051F06091C8047091C9048091CA04909134
:1050B000CB040E946E266091C804669570E04BE0B8
:1050C00050E08BE191E00E948D2D892B19F0109218
:1050D000080509C081E0809308050E94A2239093EF
:1050E00002058093010581E08093040520E0409152
:1050F000CB046091CA048091C9040C94612708957F
:105100008091C8048695815009F484E261E00C9492
:105110003E288091C80486958F5F853208F081E033
:1051200061E00C943E2880E090E00E944A2480E0F8
:1051300090E00E94342410928202109281020C941A
:10514000C016CF92DF92FF920F931F93CF93DF93FE
:105150006C010091B90280918502082BC7E0D0E074
:1051600010E0C8010C2E02C0959587950A94E2F7CD
:1051700080FD04C02197A8F7F12C09C0FC2EB601D0
:105180008C2F0E949F250E94AB14019799F38F2DBD
:10519000DF91CF911F910F91FF90DF90CF900895F5
:1051A000CF93DF93EC010E94A128BE010E949F25AE
:1051B0000E94AB14DF91CF910895990F990F890F39
:1051C000682F669566956695982F977083E0689F1F
:1051D000B001112440E050E080E0FB01E40FF51F36
:1051E000E75FFA4F208130E0092E02C036952795FF
:1051F0000A94E2F721703327042E01C0220F0A948B
:10520000EAF7822B4F5F5F4F4330510531F7089526
:10521000990F990F890FE82FE695E695E695877027
:1052200051E001C0550F8A95EAF783E0E89FF0014D
:105230001124E75FFA4F20E030E070E04081CB01BD
:10524000022E02C0969587950A94E2F781708195A7
:1052500084278523842781932F5F3F4F2330310597
:1052600069F708958093B9020C94932821E030E007
:1052700001C0220F8A95EAF720958091B902822316
:105280000C94322921E030E001C0220F8A95EAF720
:105290008091B902822B0C943229809385020C9460
:1052A0009328FC01808191810E94D028292F2F70A2
:1052B000E92FE295EF704E2F50E0FA013297EE3071
:1052C000F105B8F4E158FF4F0C942E2C803F99F073
:1052D00018F4883E70F40FC0843F59F40CC0883E27
:1052E00050F0813F31F407C0822F869586958695D0
:1052F000089580E0089581E00895109283028091DE
:105300001701882331F08091FC0487FF02C08EE1F1
:1053100001C086E0EAE2F2E0DF011D928A95E9F73A
:105320000C949328882341F08095909183028923DF
:10533000809383020C94C0160895882339F09091CD
:105340008302892B809383020C94C01608958823CE
:1053500079F19CEF980F913A30F4682F88E292E04F
:105360000E94D72314C090E2980F983090F4877071
:1053700021E030E0A90102C0440F551F8A95E2F7F1
:10538000CA018095909183028923809383020C94B3
:10539000C0169BE5980F933020F480E090E00C94C9
:1053A0004A24885A873120F480E090E00C94342419
:1053B0000895CF93882309F46DC09CEF980F913A1C
:1053C000C8F5C82F809117018823E1F08091FC0473
:1053D00087FF18C0EC2FE695E695E695F0E0E85DCE
:1053E000FD4F8281282F30E04C2F477081E090E004
:1053F00002C0880F991F4A95E2F782239323892BD5
:1054000061F412C0EAE2F2E080E392E02191C21777
:1054100021F08E179F07D1F707C06C2F88E292E02A
:105420000E94D7230E94C0166C2F88E292E00E944F
:10543000FF2313C090E2980F983090F4877021E01A
:1054400030E0A90102C0440F551F8A95E2F7CA0156
:1054500090918302892B80938302CF910C94C01684
:10546000EBE5E80FE33040F4F0E0E859FE4F8081CF
:1054700090E0CF910C944A24885A873158F4E82F51
:10548000F0E0EE0FFF1FE559FE4F80819181CF9133
:105490000C943424CF9108951F93CF93DF93182F4A
:1054A000893319F0C0E0D0E002C0C0E5D0E0812F20
:1054B0000E94D929209741F08FE99FE00197F1F7E9
:1054C00000C000002197F6CF812FDF91CF911F916F
:1054D0000C94A7291092B9008CE08093B80008952D
:1054E0009F92AF92BF92CF92DF92EF92FF920F9373
:1054F0001F93CF93DF93B82EEB010E94A2236C0180
:10550000C431D10558F0CF3F8FEFD80759F0CE0105
:1055100064E170E00E94792B7B0107C0EE24E394E4
:10552000F12C03C025E0E22EF12C84E8A82E94EAA9
:10553000992E1092BC009092BC000E94A2238C0174
:105540008091BC0087FD08C00E94A223801B910BA4
:105550008E159F05A8F32AC08091B900887F8830F6
:1055600041F08091B900887F803119F00FEF1FEF73
:105570001FC0B092BB00A092BC000E94A2238C016D
:105580008091BC0087FD08C00E94A223801B910B64
:105590008E159F05A8F30AC08091B900887F8831D5
:1055A00011F0803419F700E010E00EC00EEF1FEF8D
:1055B000CF3F8FEFD80709F4BCCFC6010E948723E5
:1055C0008C179D0708F4B5CFC801DF91CF911F91CB
:1055D0000F91FF90EF90DF90CF90BF90AF909F9092
:1055E00008950F931F93CF93DF93EB018093BB003C
:1055F00084E88093BC000E94A2238C018091BC00AF
:1056000087FD0EC0CF3F8FEFD807C1F30E94A223C2
:10561000801B910B8C179D0788F38EEF9FEF0CC0BA
:105620002091B900287F81E090E0283211F480E0D9
:1056300090E0919581959109DF91CF911F910F9104
:105640000895CF92DF92EF92FF920F931F93CF9323
:10565000DF936B018A017901B9010E94702AE6018A
:105660000C0D1D1DC017D10761F424E92093BC0067
:10567000DF91CF911F910F91FF90EF90DF90CF902E
:10568000089597FDF2CFB70189910E94F12AEACFE0
:10569000CF92DF92EF92FF920F931F93CF93DF93FE
:1056A000C62F6A017901B8010E94702A97FD11C0C6
:1056B000B8018C2F0E94F12AE601EC0CFD1CCE15DE
:1056C000DF0539F097FD05C0B80189910E94F12AE4
:1056D000F6CF24E92093BC00DF91CF911F910F9169
:1056E000FF90EF90DF90CF90089584E98093BC0005
:1056F0000895AA1BBB1B51E107C0AA1FBB1FA61719
:10570000B70710F0A61BB70B881F991F5A95A9F76A
:1057100080959095BC01CD010895FB01DC0102C08C
:1057200005900D9241505040D8F70895F999FECF59
:1057300092BD81BDF89A992780B50895A6E1B0E0A1
:1057400044E050E00C94D02BA8E1B0E042E050E0FF
:105750000C94D02B262FF999FECF92BD81BDF89ADB
:10576000019700B4021639F01FBA20BD0FB6F894A5
:10577000FA9AF99A0FBE08950396272F0E94AB2B31
:105780000E94AA2B252F0E94AB2B242F0C94AB2B0D
:105790000196272F0E94AB2B0C94AA2BDC01CB0186
:1057A000FC01F999FECF06C0F2BDE1BDF89A319631
:1057B00000B40D9241505040B8F70895991B79E01C
:1057C00004C0991F961708F0961B881F7A95C9F791
:1057D0008095089587FB082E062687FD819567FD35
:1057E00061950E94DE2B0EF4919507FC819508953A
:1057F00097FB072E16F4009407D077FD09D00E947E
:10580000792B07FC05D03EF4909581959F4F089524
:10581000709561957F4F0895A1E21A2EAA1BBB1BBC
:10582000FD010DC0AA1FBB1FEE1FFF1FA217B3076C
:10583000E407F50720F0A21BB30BE40BF50B661F82
:10584000771F881F991F1A9469F760957095809546
:1058500090959B01AC01BD01CF010895EE0FFF1F94
:105860000590F491E02D09946927962769277827F8
:105870008727782708950E94432C332312F48A1B2C
:105880009B0B0C94542CA29FB001B39FC001A39F0B
:10589000700D811D1124911DB29F700D811D112469
:1058A000911D08950E94432CB7FF0895821B930B0E
:1058B00008950E94432CA59F900DB49F900DA49F26
:1058C000800D911D11240895B7FF0C94592C0E944E
:1058D000592C821B930B08950F931F93CF93DF9343
:1058E0008230910510F482E090E0E0911405F0918F
:1058F000150520E030E0A0E0B0E0309719F14081DC
:1059000051810281138148175907C8F08417950700
:1059100069F4109731F012960C93129713961C931A
:1059200027C0009314051093150522C021153105D9
:1059300019F04217530718F49A01BD01EF01DF0176
:10594000F801DBCF21153105F9F0281B390B243084
:10595000310580F48A819B816115710521F0FB017D
:105960009383828304C09093150580931405FE01F0
:10597000329644C0FE01E20FF31F819391932250AF
:105980003109398328833AC02091120530911305DB
:10599000232B41F420910201309103013093130530
:1059A000209312052091000130910101211531054C
:1059B00041F42DB73EB74091040150910501241BDD
:1059C000350BE0911205F0911305E217F307A0F4EF
:1059D0002E1B3F0B2817390778F0AC014E5F5F4F45
:1059E0002417350748F04E0F5F1F5093130540935F
:1059F00012058193919302C0E0E0F0E0CF01DF91C6
:105A0000CF911F910F910895CF93DF93009709F4E1
:105A100081C0FC01329713821282A0911405B091CB
:105A20001505109781F420813181820F931F2091F9
:105A30001205309113052817390751F5F093130516
:105A4000E093120567C0ED0120E030E0CE17DF07DC
:105A500040F44A815B819E0141155105F1F0EA0154
:105A6000F5CFD383C28340815181840F951FC8171E
:105A7000D90759F488819981840F951F02969183E3
:105A800080838A819B81938382832115310529F448
:105A9000F0931505E09314053DC0E901FB83EA830B
:105AA00049915991C40FD51FEC17FD0761F480810E
:105AB0009181840F951F0296E901998388838281E1
:105AC00093819B838A83E0E0F0E012968D919C9114
:105AD0001397009719F0FD01DC01F7CF8D919C9190
